:020000040800F2
:1000000000C00020812200083120000833200008B1
:1000100035200008372000083920000800000000C3
:100020000000000000000000000000003B2000086D
:100030003D200008000000003F200008412000088B
:10004000C9220008C9220008C9220008C9220008E4
:10005000C9220008C9220008C9220008C9220008D4
:10006000C9220008C9220008C9220008C9220008C4
:10007000C9220008C9220008C9220008C9220008B4
:10008000C9220008C9220008C9220008C9220008A4
:10009000C9220008C9220008C9220008C922000894
:1000A000C9220008C9220008C9220008C922000884
:1000B000C9220008C9220008C9220008C922000874
:1000C000C9220008C9220008C9220008C922000864
:1000D000C922000849200008C9220008C9220008D6
:1000E000C9220008C9220008C9220008C922000844
:1000F000C9220008C9220008C9220008C922000834
:10010000C9220008C9220008C9220008C922000823
:10011000C9220008C9220008C9220008C922000813
:10012000C9220008C9220008C9220008C922000803
:1001300000000000000000000000000000000000BF
:1001400000000000000000000000000000000000AF
:10015000000000000000000000000000000000009F
:10016000000000000000000000000000000000008F
:10017000000000000000000000000000000000007F
:10018000000000000000000000000000000000006F
:10019000000000000000000000000000000000005F
:1001A000000000000000000000000000000000004F
:1001B000000000000000000000000000000000003F
:1001C000000000000000000000000000000000002F
:1001D000000000000000000000000000000000001F
:0401E0005FF8E0F1F3
:1001E80010B5054C237833B9044B13B10448AFF369
:1001F80000800123237010BDF809002000000000D2
:1002080010DE000808B5034B1BB103490348AFF3E0
:10021800008008BD00000000FC09002010DE000876
:1002280081F0004102E000BF83F0004330B54FEA9F
:1002380041044FEA430594EA050F08BF90EA020F0C
:100248001FBF54EA000C55EA020C7FEA645C7FEA9F
:10025800655C00F0E2804FEA5454D4EB5555B8BFC2
:100268006D420CDD2C4480EA020281EA030382EA33
:10027800000083EA010180EA020281EA0303362DC5
:1002880088BF30BD11F0004F4FEA01314FF4801C98
:100298004CEA113102D0404261EB410113F0004FAA
:1002A8004FEA03334CEA133302D0524263EB430361
:1002B80094EA050F00F0A780A4F10104D5F1200EFF
:1002C8000DDB02FA0EFC22FA05F2801841F100015A
:1002D80003FA0EF2801843FA05F359410EE0A5F12E
:1002E80020050EF1200E012A03FA0EFC28BF4CF05F
:1002F800020C43FA05F3C01851EBE37101F0004515
:1003080007D54FF0000EDCF1000C7EEB00006EEB21
:100318000101B1F5801F1BD3B1F5001F0CD34908AB
:100328005FEA30004FEA3C0C04F101044FEA445202
:1003380012F5800F80F09A80BCF1004F08BF5FEA89
:10034800500C50F1000041EB045141EA050130BD69
:100358005FEA4C0C404141EB0101013C28BFB1F57B
:10036800801FE9D291F0000F04BF01460020B1FAC6
:1003780081F308BF2033A3F10B03B3F120020CDA99
:100388000C3208DD02F1140CC2F10C0201FA0CF077
:1003980021FA02F10CE002F11402D8BFC2F1200CDC
:1003A80001FA02F120FA0CFCDCBF41EA0C01904092
:1003B800E41AA2BF01EB0451294330BD6FEA0404DB
:1003C8001F3C1CDA0C340EDC04F11404C4F12002C6
:1003D80020FA04F001FA02F340EA030021FA04F3D8
:1003E80045EA030130BDC4F10C04C4F1200220FA2F
:1003F80002F001FA04F340EA0300294630BD21FA6D
:1004080004F0294630BD94F0000F83F4801306BF32
:1004180081F480110134013D4EE77FEA645C18BF26
:100428007FEA655C29D094EA050F08BF90EA020FBD
:1004380005D054EA000C04BF1946104630BD91EAB5
:10044800030F1EBF0021002030BD5FEA545C05D1B8
:100458004000494128BF41F0004130BD14F58004F7
:100468003CBF01F5801130BD01F0004545F0FE416B
:1004780041F470014FF0000030BD7FEA645C1ABFA0
:10048800194610467FEA655C1CBF0B46024650EAD7
:10049800013406BF52EA033591EA030F41F4002103
:1004A80030BD00BF90F0000F04BF0021704730B589
:1004B8004FF4806404F132044FF000054FF000015E
:1004C80050E700BF90F0000F04BF0021704730B51F
:1004D8004FF4806404F1320410F0004548BF4042F4
:1004E8004FF000013EE700BF42004FEAE2014FEA49
:1004F80031014FEA02701FBF12F07F4393F07F4F24
:1005080081F06051704732F07F4208BF704793F026
:100518007F4F04BF41F40021704730B54FF4607439
:1005280001F0004521F000411CE700BF50EA01023C
:1005380008BF704730B54FF000050AE050EA0102E5
:1005480008BF704730B511F0004502D5404261EB55
:1005580041014FF4806404F132045FEA915C3FF496
:10056800D8AE4FF003025FEADC0C18BF03325FEA33
:10057800DC0C18BF033202EBDC02C2F1200300FAE4
:1005880003FC20FA02F001FA03FE40EA0E0021FA09
:1005980002F11444BDE600BF70B54FF0FF0C4CF4F7
:1005A800E06C1CEA11541DBF1CEA135594EA0C0FA9
:1005B80095EA0C0F00F0DEF82C4481EA030621EAE4
:1005C8004C5123EA4C5350EA013518BF52EA03351F
:1005D80041F4801143F4801338D0A0FB02CE4FF0D1
:1005E8000005E1FB02E506F00042E0FB03E54FF001
:1005F8000006E1FB03569CF0000F18BF4EF0010EF9
:10060800A4F1FF04B6F5007F64F5407404D25FEAF4
:100618004E0E6D4146EB060642EAC62141EA5551A7
:100628004FEAC52040EA5E504FEACE2EB4F1FD0CE9
:1006380088BFBCF5E06F1ED8BEF1004F08BF5FEA67
:10064800500E50F1000041EB045170BD06F0004619
:1006580046EA010140EA020081EA0301B4EB5C04C6
:10066800C2BFD4EB0C0541EA045170BD41F48011BE
:100678004FF0000E013C00F3AB8014F1360FDEBFE3
:10068800002001F0004170BDC4F10004203C35DABF
:100698000C341BDC04F11404C4F1200500FA05F342
:1006A80020FA04F001FA05F240EA020001F00042E3
:1006B80021F0004110EBD37021FA04F642EB060159
:1006C8005EEA430E08BF20EAD37070BDC4F10C0483
:1006D800C4F1200500FA04F320FA05F001FA04F247
:1006E80040EA020001F0004110EBD37041F1000133
:1006F8005EEA430E08BF20EAD37070BDC4F120053E
:1007080000FA05F24EEA020E20FA04F301FA05F2A5
:1007180043EA020321FA04F001F0004121FA04F24D
:1007280020EA020000EBD3705EEA430E08BF20EA1D
:10073800D37070BD94F0000F0FD101F00046400057
:1007480041EB010111F4801F08BF013CF7D041EAD9
:10075800060195F0000F18BF704703F000465200DD
:1007680043EB030313F4801F08BF013DF7D043EAAE
:100778000603704794EA0C0F0CEA135518BF95EA64
:100788000C0F0CD050EA410618BF52EA4306D1D1EB
:1007980081EA030101F000414FF0000070BD50EA0A
:1007A800410606BF1046194652EA430619D094EA94
:1007B8000C0F02D150EA013613D195EA0C0F05D17E
:1007C80052EA03361CBF104619460AD181EA0301D2
:1007D80001F0004141F0FE4141F470014FF000008A
:1007E80070BD41F0FE4141F4780170BD70B54FF025
:1007F800FF0C4CF4E06C1CEA11541DBF1CEA1355A5
:1008080094EA0C0F95EA0C0F00F0A7F8A4EB050486
:1008180081EA030E52EA03354FEA013100F088807D
:100828004FEA03334FF0805545EA131343EA126346
:100838004FEA022245EA111545EA10654FEA0026FB
:100848000EF000419D4208BF964244F1FD0404F5B4
:10085800407402D25B084FEA3202B61A65EB030510
:100868005B084FEA32024FF480104FF4002CB6EBCD
:10087800020E75EB030E22BFB61A754640EA0C004D
:100888005B084FEA3202B6EB020E75EB030E22BF8D
:10089800B61A754640EA5C005B084FEA3202B6EBCE
:1008A800020E75EB030E22BFB61A754640EA9C008D
:1008B8005B084FEA3202B6EB020E75EB030E22BF5D
:1008C800B61A754640EADC0055EA060E18D04FEA1B
:1008D800051545EA16754FEA06164FEAC30343EABB
:1008E80052734FEAC2025FEA1C1CC0D111F4801F88
:1008F8000BD141EA00014FF000004FF0004CB6E781
:1009080011F4801F04BF01430020B4F1FD0C88BF1F
:10091800BCF5E06F3FF6AFAEB5EB030C04BFB6EB2A
:10092800020C5FEA500C50F1000041EB045170BD1D
:100938000EF0004E4EEA113114EB5C04C2BFD4EB4A
:100948000C0541EA045170BD41F480114FF0000ECE
:10095800013C90E645EA060E8DE60CEA135594EA4A
:100968000C0F08BF95EA0C0F3FF43BAF94EA0C0F4D
:100978000AD150EA01347FF434AF95EA0C0F7FF4C2
:1009880025AF104619462CE795EA0C0F06D152EA16
:1009980003353FF4FDAE1046194622E750EA4106FA
:1009A80018BF52EA43067FF4C5AE50EA41047FF40B
:1009B8000DAF52EA43057FF4EBAE12E74FEA41026E
:1009C800B2F1E04324BFB3F5001CDCF1FE5C0DD9A5
:1009D80001F0004C4FEAC0024CEA5070B2F1004FEF
:1009E80040EB830008BF20F00100704711F0804FF2
:1009F80021D113F13872BCBF01F00040704741F4B7
:100A080080114FEA5252C2F11802C2F1200C10FABA
:100A18000CF320FA02F018BF40F001004FEAC1239E
:100A28004FEAD32303FA0CFC40EA0C0023FA02F342
:100A38004FEA4303CCE77FEA625307D150EA013318
:100A48001EBF4FF0FE4040F44000704701F00040E8
:100A580040F0FE4040F40000704700BF80F00040C6
:100A680002E000BF81F0004142001FBF5FEA41037E
:100A780092EA030F7FEA226C7FEA236C6AD04FEA7E
:100A88001262D2EB1363C1BFD218414048404140C3
:100A9800B8BF5B42192B88BF704710F0004F40F475
:100AA800000020F07F4018BF404211F0004F41F491
:100AB800000121F07F4118BF494292EA030F3FD05D
:100AC800A2F1010241FA03FC10EB0C00C3F1200370
:100AD80001FA03F100F0004302D5494260EB4000FF
:100AE800B0F5000F13D3B0F1807F06D340084FEA6A
:100AF800310102F10102FE2A51D2B1F1004F40EB5F
:100B0800C25008BF20F0010040EA030070474900C6
:100B180040EB0000013A28BFB0F5000FEDD2B0FA63
:100B280080FCACF1080CB2EB0C0200FA0CF0AABF86
:100B380000EBC25052421843BCBFD0401843704724
:100B480092F0000F81F4000106BF80F4000001322A
:100B5800013BB5E74FEA41037FEA226C18BF7FEA01
:100B6800236C21D092EA030F04D092F0000F08BF43
:100B78000846704790EA010F1CBF0020704712F02A
:100B88007F4F04D1400028BF40F00040704712F169
:100B980000723CBF00F50000704700F0004343F0CE
:100BA800FE4040F4000070477FEA226216BF084604
:100BB8007FEA23630146420206BF5FEA412390EAC7
:100BC800010F40F4800070474FF0000304E000BFBD
:100BD80010F0004348BF40425FEA000C08BF70476E
:100BE80043F0964301464FF000001CE050EA010232
:100BF80008BF70474FF000030AE000BF50EA010247
:100C080008BF704711F0004302D5404261EB410133
:100C18005FEA010C02BF84460146002043F0B64358
:100C280008BFA3F18053A3F50003BCFA8CF2083A7D
:100C3800A3EBC25310DB01FA02FC634400FA02FC86
:100C4800C2F12002BCF1004F20FA02F243EB02008D
:100C580008BF20F00100704702F1200201FA02FCEF
:100C6800C2F1200250EA4C0021FA02F243EB0200E2
:100C780008BF20EADC7070474FF0FF0C1CEAD05226
:100C88001EBF1CEAD15392EA0C0F93EA0C0F6FD0E7
:100C98001A4480EA010C400218BF5FEA41211ED0C5
:100CA8004FF0006343EA501043EA5111A0FB0131B1
:100CB8000CF00040B1F5000F3EBF490041EAD37186
:100CC8005B0040EA010062F17F02FD2A1DD8B3F102
:100CD800004F40EBC25008BF20F00100704790F071
:100CE800000F0CF0004C08BF49024CEA502040EAC3
:100CF80051207F3AC2BFD2F1FF0340EAC250704789
:100D080040F400004FF00003013A5DDC12F1190FC6
:100D1800DCBF00F000407047C2F10002410021FA38
:100D280002F1C2F1200200FA02FC5FEA310040F150
:100D3800000053EA4C0308BF20EADC70704792F0C9
:100D4800000F00F0004C02BF400010F4000F013A01
:100D5800F9D040EA0C0093F0000F01F0004C02BFFC
:100D6800490011F4000F013BF9D041EA0C018FE76B
:100D78000CEAD15392EA0C0F18BF93EA0C0F0AD071
:100D880030F0004C18BF31F0004CD8D180EA010097
:100D980000F00040704790F0000F17BF90F0004F30
:100DA800084691F0000F91F0004F14D092EA0C0F12
:100DB80001D142020FD193EA0C0F03D14B0218BFA5
:100DC800084608D180EA010000F0004040F0FE40EB
:100DD80040F40000704740F0FE4040F44000704787
:100DE8004FF0FF0C1CEAD0521EBF1CEAD15392EA06
:100DF8000C0F93EA0C0F69D0A2EB030280EA010CF6
:100E080049024FEA402037D04FF0805343EA11118E
:100E180043EA10130CF000408B4238BF5B0042F1EC
:100E28007D024FF4000C8B4224BF5B1A40EA0C0091
:100E3800B3EB510F24BFA3EB510340EA5C00B3EBC3
:100E4800910F24BFA3EB910340EA9C00B3EBD10FB1
:100E580024BFA3EBD10340EADC001B0118BF5FEA03
:100E68001C1CE0D1FD2A3FF650AF8B4240EBC2502C
:100E780008BF20F0010070470CF0004C4CEA5020ED
:100E88007F32C2BFD2F1FF0340EAC250704740F43C
:100E980000004FF00003013A37E792F0000F00F02E
:100EA800004C02BF400010F4000F013AF9D040EAAC
:100EB8000C0093F0000F01F0004C02BF490011F440
:100EC800000F013BF9D041EA0C0195E70CEAD15338
:100ED80092EA0C0F08D142027FF47DAF93EA0C0F1F
:100EE8007FF470AF084676E793EA0C0F04D14B0203
:100EF8003FF44CAF08466EE730F0004C18BF31F0B5
:100F0800004CCAD130F000427FF45CAF31F00043AE
:100F18007FF43CAF5FE700BF4FF0FF3C06E000BF47
:100F28004FF0010C02E000BF4FF0010C4DF804CD6A
:100F38004FEA40024FEA41037FEA226C18BF7FEA7A
:100F4800236C11D001B052EA530C18BF90EA010F7C
:100F580058BFB2EB030088BFC81738BF6FEAE1700B
:100F680018BF40F0010070477FEA226C02D15FEAA7
:100F7800402C05D17FEA236CE4D15FEA412CE1D013
:100F88005DF8040B704700BF844608466146FFE7DA
:100F98000FB5FFF7C9FF002848BF10F1000F0FBDBC
:100FA8004DF808EDFFF7F4FF0CBF012000205DF8B5
:100FB80008FB00BF4DF808EDFFF7EAFF34BF01203A
:100FC80000205DF808FB00BF4DF808EDFFF7E0FFD3
:100FD80094BF012000205DF808FB00BF4DF808ED24
:100FE800FFF7D2FF94BF012000205DF808FB00BF87
:100FF8004DF808EDFFF7C8FF34BF012000205DF869
:1010080008FB00BF4FEA4002B2F1FE4F0FD34FF08A
:101018009E03B3EB12620DD94FEA002343F000435D
:1010280010F0004F23FA02F018BF404270474FF00B
:101038000000704712F1610F01D1420205D110F092
:10104800004008BF6FF0004070474FF00000704745
:1010580042000ED2B2F1FE4F0BD34FF09E03B3EB1A
:10106800126209D44FEA002343F0004323FA02F046
:1010780070474FF00000704712F1610F01D1420232
:1010880002D14FF0FF3070474FF00000704700BFAB
:101098007BB972B90029BEBF00204FF0004106E0BD
:1010A80008BF00281CBF6FF000414FF0FF3000F070
:1010B800A9B9ADF1080C6DE904CE002909DB002BB4
:1010C8001ADB00F035F8DDF804E0DDE9022304B0AE
:1010D8007047404261EB4101002B1BDB00F028F810
:1010E800DDF804E0DDE9022304B0404261EB410190
:1010F800524263EB43037047524263EB430300F0F1
:1011080017F8DDF804E0DDE9022304B0404261EBA2
:1011180041017047524263EB430300F009F8DDF8E0
:1011280004E0DDE9022304B0524263EB4303704755
:101138002DE9F047089E0D4604468846002B4DD100
:101148008A42944668D9B2FA82F252B101FA02F39D
:10115800C2F1200120FA01F10CFA02FC41EA03086D
:1011680094404FEA1C41B8FBF1F71FFA8CFE01FBD3
:10117800178807FB0EF0230C43EA084398420AD964
:101188001CEB030307F1FF3580F01E81984240F203
:101198001B81023F63441B1AB3FBF1F001FB1033C0
:1011A80000FB0EFEA4B244EA0344A6450AD91CEB90
:1011B800040400F1FF3380F00981A64540F206815E
:1011C800644402380021A4EB0E0440EA07401EB133
:1011D8000023D440C6E90043BDE8F0878B4208D914
:1011E800002E00F0EE800021C6E900050846BDE8A3
:1011F800F087B3FA83F100294AD1AB4202D3824285
:1012080000F2FC80841A65EB030301209846002E47
:10121800E2D0C6E90048DFE702B9FFDEB2FA82F29F
:10122800002A40F09180A1EB0C0001214FEA1C47F5
:101238001FFA8CFEB0FBF7F307FB1300250C45EAF9
:1012480000450EFB03F0A84208D91CEB050503F185
:10125800FF3802D2A84200F2CE8043462D1AB5FBD1
:10126800F7F007FB10550EFB00FEA4B244EA054454
:10127800A64508D91CEB040400F1FF3502D2A645A7
:1012880000F2B6802846A4EB0E0440EA03409EE72D
:10129800C1F120078B4022FA07FC4CEA030C25FA1F
:1012A80007FA4FEA1C49BAFBF9F820FA07F309FBD9
:1012B80018AA8D401FFA8CFE1D4300FA01F308FBA3
:1012C8000EF02C0C44EA0A44A04202FA01F20BD9AF
:1012D8001CEB040408F1FF3A80F08880A04240F239
:1012E8008580A8F102086444241AB4FBF9F009FBCC
:1012F800104400FB0EFEADB245EA0444A64508D9E9
:101308001CEB040400F1FF356CD2A6456AD90238FB
:10131800644440EA0840A0FB0295A4EB0E04AC42EA
:10132800C846AE4656D353D0002E69D0B3EB080258
:1013380064EB0E0422FA01F304FA07F71F43CC40CA
:10134800C6E90074002147E70CFA02FCC2F120014B
:1013580025FA01F34FEA1C4720FA01F195400D43A5
:10136800B3FBF7F107FB11331FFA8CFE280C40EA98
:10137800034001FB0EF3834204FA02F408D91CEB84
:10138800000001F1FF382FD283422DD90239604481
:10139800C01AB0FBF7F307FB1300ADB245EA0045EE
:1013A80003FB0EF0A84208D91CEB050503F1FF3832
:1013B80016D2A84214D9023B6544281A43EA0141CF
:1013C80038E73146304607E72F46E4E61846F9E69F
:1013D8004B45A9D2B9EB020865EB0C0E0138A3E71F
:1013E8004346EAE7284694E74146D1E7D0467BE7FB
:1013F8006444023847E7023B65442FE7084606E79E
:101408003146E9E6704700BF844641EA000313F01D
:10141800030349D1403A23D30B6803604B68436008
:101428008B688360CB68C3600B6903614B69436158
:101438008B698361CB69C3610B6A03624B6A436240
:101448008B6A8362CB6AC3620B6B03634B6B436328
:101458008B6B8363CB6BC36340304031403ADBD244
:1014680030320BD30B6803604B6843608B68836032
:10147800CB68C36010301031103AF3D20C3205D368
:1014880051F8043B40F8043B043AF9D2043208D03E
:10149800D2071CBF11F8013B00F8013B01D30B88B0
:1014A80003806046704700BF082A13D38B07B1D06A
:1014B80010F00303AED0C3F10403D21ADB071CBF3C
:1014C80011F8013B00F8013BA4D331F8023B20F8A6
:1014D800023B9FE7043AD9D3013A11F8013B00F8DF
:1014E800013BF9D20B7803704B7843708B7883708B
:1014F800604670474FF0FF3C06E000BF4FF0010C1C
:1015080002E000BF4FF0010C4DF804CD4FEA410C4A
:101518007FEA6C5C4FEA430C18BF7FEA6C5C1BD017
:1015280001B050EA410C0CBF52EA430C91EA030F98
:1015380002BF90EA020F0020704710F1000F91EAF5
:10154800030F58BF994208BF90422CBFD8176FEAC3
:10155800E37040F0010070474FEA410C7FEA6C5C91
:1015680002D150EA013C07D14FEA430C7FEA6C5C98
:10157800D6D152EA033CD3D05DF8040B704700BFC4
:101588008446104662468C461946634600E000BF12
:1015980001B5FFF7B7FF002848BF10F1000F01BDE4
:1015A8004DF808EDFFF7F4FF0CBF012000205DF8AF
:1015B80008FB00BF4DF808EDFFF7EAFF34BF012034
:1015C80000205DF808FB00BF4DF808EDFFF7E0FFCD
:1015D80094BF012000205DF808FB00BF4DF808ED1E
:1015E800FFF7CEFF94BF012000205DF808FB00BF85
:1015F8004DF808EDFFF7C4FF34BF012000205DF867
:1016080008FB00BF4FEA410C7FEA6C5C02D150EA4C
:10161800013C0AD14FEA430C7FEA6C5C02D152EAE2
:10162800033C02D14FF0000070474FF001007047B3
:101638004FEA410212F5001215D211D56FF47873F2
:10164800B3EB625212D94FEAC12343F0004343EA95
:10165800505311F0004F23FA02F018BF4042704770
:101668004FF00000704750EA013005D111F00040FA
:1016780008BF6FF0004070474FF00000704700BF90
:1016880053B94AB9002908BF00281CBF4FF0FF31E1
:101698004FF0FF30FFF7B6BEADF1080C6DE904CE90
:1016A800FFF746FDDDF804E0DDE9022304B07047EA
:1016B8002DE9F04389B00024049405940694079416
:1016C800334B9A6942F010029A619A6902F010024B
:1016D8000092009A9A6942F020029A619A6902F08F
:1016E80020020192019A9A6942F004029A619A6969
:1016F80002F004020292029A9A6942F008029A6180
:101708009B6903F008030393039BDFF88890012289
:101718004FF48071484601F0A9F81F4F01220421B7
:10172800384601F0A3F81D4E22462021304601F02C
:101738009DF84FF4807304930125059506954FF0A5
:101748000308CDF81C8004A9484600F06FFF042365
:10175800049305950695CDF81C8004A9384600F039
:1017680065FF10230493059406940DEB030130469E
:1017780000F05CFF20230493059506940223079349
:1017880004A9304600F052FF09B0BDE8F08300BF5D
:10179800001002400008014000140140000C014004
:1017A80000B583B08DF80700084B1B681B6813F061
:1017B800400FF9D04FF47A7301220DF10701034865
:1017C80001F07AFF03B05DF804FB00BFC80A0020EF
:1017D8001C2A3ED830B589B0D51C05F120030DEB85
:1017E8000304002304F8203C88248DF800408DF879
:1017F80001008DF8022007E0CC5C03F12300684467
:1018080000F8204C0133DBB29342F5D300230EE0FD
:1018180003F12001694411F8201C05F120006844F7
:1018280010F8204C214400F8201C0133DBB2911C35
:101838009942EDDA002408E004F120036B4413F820
:10184800200CFFF7ADFF0134E4B2A542F4DA09B089
:1018580030BD70472DE9F04385B007460E46154662
:101868001C46BDF93090BDF9348001461F4805F08B
:101878003DFD31461E4805F039FD29461D4805F055
:1018880035FD21461C4805F031FD49461B4805F049
:101898002DFD41461A4805F029FD3B128DF804300C
:1018A8008DF8057033128DF806308DF807602B120D
:1018B8008DF808308DF8095023128DF80A308DF80C
:1018C8000B404FEA29238DF80C308DF80D904FEA24
:1018D80028238DF80E308DF80F800C2201A9A12045
:1018E800FFF776FF05B0BDE8F08300BF28DE0008EB
:1018F80034DE000840DE00084CDE000858DE000830
:1019080064DE00082DE9F04389B004460846114614
:101918001A46BDF94090BDF94480BDF94870BDF93B
:101928004C60BDF950504FF0000C0AE00CF1200358
:101938000DEB030E00230EF81C3C0CF1010C5FFAB2
:101948008CFCBCF11B0FF1D923128DF804308DF8F3
:10195800054003128DF806308DF807000B128DF83C
:1019680008308DF8091013128DF80A308DF80B2005
:101978004FEA29238DF80C308DF80D904FEA282373
:101988008DF80E308DF80F803B128DF816308DF8DB
:10199800177033128DF818308DF819602B128DF8E6
:1019A8001A308DF81B501C2201A9AF20FFF710FF39
:1019B80009B0BDE8F08372B6FEE700B591B0282201
:1019C800002106A805F040FC00230193029303932D
:1019D80004930593012206924FF4803307930A92E9
:1019E80002220D920E934FF4E0130F9306A800F015
:1019F80063FF80B90F23019302210291002303930F
:101A08004FF480620492059301A801F087F920B988
:101A180011B05DF804FBFFF7CEFFFFF7CCFF000025
:101A28002DE9F0418CB000F073FC482005F070F906
:101A3800FFF7C3FFFFF73CFE00F084FB00F09EF9C0
:101A480000F0BEF905F0CEF804F07CFF002004F0A9
:101A580031FFBE4B4FF478421A8005F08DF904F03F
:101A6800EDFC05E0BA4805F0A3FCC82005F078F9BC
:101A780003F054FC05460028F4D15AE000230293F1
:101A880010220192B34A00924FF6FF72B4214E2001
:101A980005F030FB764236B2BAE000230293019794
:101AA800AC4A00924FF6FF72B4214E2005F022FB9B
:101AB8006D422DB2EBE0002302930197A54A0092F4
:101AC8004FF6FF72B4214E2005F014FB6D422DB283
:101AD8000CE10023029301979E4A00924FF6FF7291
:101AE800B4214E2005F006FB6D422DB29A4A82FBC6
:101AF8000532EE17C6EBA20610270097032332B271
:101B08004FF48271562005F003FA06EB8606A5EB22
:101B180046060097012332B24FF48271762005F011
:101B2800F7F94FF480718D4800F0A6FE254601357F
:101B3800EDB209AA0AA90BA803F042FC0028F6D1C5
:101B480004F082FB06460146854805F0CFFB0DF1FF
:101B58001E0208A90DF1220004F0C9FB06AA0DF126
:101B68001A0107A804F0A0FBBDF918300193BDF9CC
:101B78001A300093BDF91C30BDF91E20BDF92010A4
:101B8800BDF92200FFF766FE76490A98FFF774F858
:101B9800FFF738FA044673490B98FFF76DF8FFF71B
:101BA80031FA074670490998FFF766F8FFF72AFAED
:101BB80000B204903FB2039724B20294BDF91830E2
:101BC8000193BDF91A300093BDF91C30BDF91E20F0
:101BD800BDF92010BDF92200FFF794FE634BA3FB6B
:101BE8000523DB0803EB8303A5EB430313F0FF0492
:101BF8009DD1002EFFF642AF0023029310220192DE
:101C0800202200924FF6FF72C8214E2005F072FA8A
:101C1800574D85FB06354FEAE678C8EB65152DB2BA
:101C28001027009703232A46C821562005F070F98B
:101C38002946504805F05AFB474B83FB0623C8EB5F
:101C4800A30303EB8303A6EB430636B200970123F5
:101C58003246C821762005F05BF93146464805F042
:101C680045FB41490B98FFF707F8FFF7CBF905B299
:101C7800002DFFF612AF00230293102201922022BA
:101C880000924FF6FF72C8214E2005F033FA324A0F
:101C980082FB0532EE17C6EBA20610270097032336
:101CA80032B2DC21562005F033F906EB8606A5EBA7
:101CB80046060097012332B2DC21762005F028F988
:101CC80029490A98FEF7D8FFFFF79CF905B2002DBD
:101CD800FFF6F1AE00230293102201922022009217
:101CE8004FF6FF72C8214E2005F004FA1A4A82FB0B
:101CF8000532EE17C6EBA20610270097032332B26F
:101D0800F021562005F004F906EB8606A5EB4606F9
:101D18000097012332B2F021762005F0F9F8124934
:101D28000998FEF7A9FFFFF76DF905B2002DFFF638
:101D3800D0AE0023029310220192202200924FF687
:101D4800FF72C8214E2005F0D5F9CFE63C0C0020E3
:101D580070DE00088CDE00086766666600080140D1
:101D680080DE00080000C84200002041CDCCCCCC69
:101D78001F85EB5190DE0008A4DE000808B50E4868
:101D88000E4B03604FF48273436000238360C3608B
:101D9800036143614FF4007282613822C2610362B9
:101DA800436283620A23C36201F010F900B908BDD7
:101DB800FFF701FEFBE700BF140A002000300140D6
:101DC80008B50E480E4B03604FF48273436000233E
:101DD8008360C360036143614FF4007282613822FB
:101DE800C2610362436283620A23C36201F0EEF8B0
:101DF80000B908BDFFF7DFFDFBE700BF6C0A002054
:101E0800003800402DE9F0438BB000230693079378
:101E1800089309930368484A934205D0474A934276
:101E280034D00BB0BDE8F083454B9A6942F4805238
:101E38009A619A6902F480520192019A9A6942F071
:101E480004029A619B6903F004030293029BA02396
:101E5800069302230793032509953A4C06A92046C1
:101E680000F0E4FB4023069300230793089306A998
:101E7800204600F0DBFB0423069301230793089315
:101E8800099506A9204600F0D1FBCAE72C4B9A69B0
:101E980042F010029A619A6902F010020392039AC2
:101EA800DA6942F48042DA61DA6902F48042049223
:101EB800049A9A6942F008029A619B6903F0080340
:101EC8000593059B4FF420430693022307930327AA
:101ED80009971D4D06A9284600F0A8FB4FF480433A
:101EE800069300240794089406A9284600F09EFB50
:101EF8004FF48059CDF8189001260796089609974F
:101F080006A9284600F092FB4FF04008CDF818804B
:101F18000796089609970D4E06A9304600F086FBED
:101F280022464946284600F0A1FC22464146304652
:101F380000F09CFC75E700BF00300140003800400D
:101F48000010024000080140000C01400010014050
:101F58000B4B19680A6822F040020A6019680A687F
:101F680022F038021204120C0A601A681168084339
:101F780010601A68136843F040031360704700BF8D
:101F8800140A00200B4B19680A6822F040020A6004
:101F980019680A6822F038021204120C0A601A68DA
:101FA8001168084310601A68136843F0400313600F
:101FB800704700BF6C0A002000B587B08DF80F008D
:101FC8004FF47A73009301230DF117020DF10F01FD
:101FD800034801F032F99DF8170007B05DF804FBDB
:101FE800140A002082B00E4B9A6942F001029A61ED
:101FF8009A6902F001020092009ADA6942F080526E
:10200800DA61DB6903F080530193019B054A536849
:1020180023F0E06343F00073536002B0704700BFE1
:102028000010024000000140FEE7FEE7FEE7FEE781
:10203800FEE770477047704708B500F07BF908BDA8
:1020480008B5084801F022FC064801F063FD202885
:10205800FAD101220449034801F07DFD0028F8D196
:1020680008BD00BFE00B0020DC0B002001207047FA
:1020780008B505F08BF8162303604FF0FF3008BD54
:1020880008B54FF0FF31FFF7F3FFFEE770B50C46D8
:102098001646002506E0AFF30080214601F8010B43
:1020A80001350C46B542F6DB304670BD70B50C46BE
:1020B8001646002504E014F8010B00F037F8013546
:1020C800B542F8DB304670BD4FF0FF3070474FF433
:1020D80000534B6000207047012070470020704774
:1020E80010B503460C4A0D490D48006840B10C482C
:1020F80000680344521A934206D8094A136010BD77
:102108000748084C0460F2E705F040F80C23036028
:102118004FF0FF30F3E700BF00C0002000040000CC
:10212800C40A0020B00C002070470000044B1B6854
:1021380013F0400FFAD0C2B2014B5A60704700BF8B
:102148000038014008B50A480A4B03604FF4E133F0
:10215800436000238360C36003610C224261836192
:10216800C36101F079FA00B908BDFFF724FCFBE769
:10217800E00B00200038014030B587B000230293FF
:1021880003930493059302681B4B9A4201D007B04E
:1021980030BD03F558439A6942F480429A619A69BE
:1021A80002F480420092009A9A6942F004029A610D
:1021B8009B6903F004030193019B4FF4007302939E
:1021C80002230393032305930C4D02A9284600F02C
:1021D8002DFA4FF48063029300240394049402A917
:1021E800284600F023FA22462146252000F0DAF896
:1021F800252000F00FF9CAE7003801400008014027
:102208000268194B9A4200D07047184A1388B2F9ED
:102218000020002AF8DB13F4804F0ED0144A1278FD
:102228000A2A03D0114B00221A8070476FEA4343F1
:102238006FEA53430D4A138070470D4A12780D2AEE
:102248000DD0C3F30D010B48425401339BB2074A2A
:102258001380C72BD8D9134600221A80D4E743F439
:102268008043024A1380704700380140D80B002091
:10227800DC0B0020100B0020FFF756FF0B480C4921
:102288000C4A002302E0D458C4500433C4188C42CA
:10229800F9D3094A094C002301E013600432A24231
:1022A800FBD304F079FFFFF7BBFB70470000002069
:1022B800F809002004FB0008F8090020B00C0020F1
:1022C800FEE7000010B504460E4B18784FF47A73F9
:1022D800B3FBF0F30C4A1068B0FBF3F000F0A8F879
:1022E80068B90F2C01D901200AE0002221464FF0DD
:1022F800FF3000F057F8054B1C60002000E001207B
:1023080010BD00BF040000200000002008000020CD
:1023180008B5074A136843F010031360032000F060
:102328002FF80F20FFF7CEFFFFF75CFE002008BD57
:1023380000200240034A1168034B1B780B441360CA
:10234800704700BF280C002004000020014B1868CB
:10235800704700BF280C002038B50446FFF7F6FF89
:102368000546B4F1FF3F02D0044B1B781C44FFF72D
:10237800EDFF401BA042FAD338BD00BF0400002087
:10238800074AD36823F4E0631B041B0C000200F423
:10239800E060034343F0BF6343F40033D360704706
:1023A80000ED00E000B5194BDB68C3F30223C3F16D
:1023B800070CBCF1040F28BF4FF0040C03F1040E06
:1023C800BEF1060F18D9033B4FF0FF3E0EFA0CFC86
:1023D80021EA0C0199400EFA03F322EA0303194398
:1023E80000280BDB0901C9B200F1604000F561402B
:1023F80080F800135DF804FB0023E5E700F00F0008
:102408000901C9B2024B1954F4E700BF00ED00E01E
:1024180014ED00E0002807DB00F01F02400901234B
:102428009340024A42F82030704700BF00E100E0C4
:102438000138B0F1807F0BD24FF0E0235861054A94
:10244800F02182F823100020986107221A61704752
:102458000120704700ED00E0042806D04FF0E0228C
:10246800136923F00403136170474FF0E0221369E6
:1024780043F004031361704790F82130DBB2022B5C
:1024880006D004238363002380F82030012070479E
:102498000268136823F00E0313600268136823F0C0
:1024A80001031360036CC16B012202FA03F34B6052
:1024B80080F82120002380F820301846704700005B
:1024C80008B590F82130DBB2022B03D004238363D4
:1024D800012008BD0268136823F00E031360026828
:1024E800136823F00103136003684C4A93424ED9E2
:1024F800783A934224D01432934230D01432934223
:102508002FD0143293422FD0143293422FD014324A
:1025180093422FD0143293422FD002F56272934225
:102528002ED0143293422DD0143293422CD0143230
:10253800934202D04FF4803203E04FF4805200E01F
:102548000122374B5A60012380F82130002380F89C
:102558002030436B002B5ED098470020B9E710224B
:10256800EFE74FF48072ECE74FF48052E9E74FF45D
:102578008032E6E74FF48012E3E74FF08072E0E73D
:102588000122DEE71022DCE74FF48072D9E7254A02
:10259800934224D01432934225D01432934224D04B
:1025A8001432934224D01432934224D014329342EA
:1025B80024D01432934224D002F56272934223D07D
:1025C8001432934222D01432934221D014329342CF
:1025D80002D04FF4803203E04FF4805200E0012231
:1025E800114B5A60AFE71022FAE74FF48072F7E711
:1025F8004FF48052F4E74FF48032F1E74FF4801241
:10260800EEE74FF08072EBE70122E9E71022E7E7F7
:102618004FF48072E4E700205BE700BF80000240CF
:1026280000040240080002400000024070B582B079
:102638000024A446B0E0874DAA4210D007D9864DA1
:10264800AA420CD005F58035AA4208D013E0A5F5BA
:102658008015AA4203D005F57025AA4207D18A68D9
:10266800002A62D0012A5BD04361082403E0A5F563
:102678008015AA42F3D0BEF1FF0F58D80646BEF126
:10268800FF0F56D84FEA8C0233680F25954023EA8E
:10269800050304FA02F2134333604B6813F0805FBA
:1026A80078D06E4B9A6942F001029A619B6903F0F7
:1026B80001030193019B4FEA9C02951C684B53F858
:1026C80025600CF003039D000F23AB4026EA0306A8
:1026D800644B984233D003F58063984200F09880A9
:1026E80003F58063984200F0958003F58063984273
:1026F80000F0928003F58063984200F08F8003F524
:102708008063984219D006231AE0CC68B3E7CC68F6
:102718000434B0E7CC680834ADE7CC680C34AAE7D9
:1027280003610824A7E70024A5E70424A3E7061DFE
:10273800A5E7ACF108029200A6E7052300E0002314
:10274800AB4033430232464D45F822304B6813F410
:10275800801F65D0444A936843EA0E0393604B6830
:1027680013F4001F62D0404AD36843EA0E03D360D3
:102778004B6813F4003F5FD03B4A536843EA0E03AB
:1027880053604B6813F4803F5CD0374A136843EAC0
:102798000E0313600CF1010C0A6832FA0CF357D0DF
:1027A800012303FA0CF302EA030E33EA0202F1D121
:1027B8004A68122A3FF63FAF122A3FF65CAF01A5DE
:1027C80055F822F067260008132700081D2700087F
:1027D8002F2700087F2600087F2600087F2600088C
:1027E8007F2600087F2600087F2600087F2600082D
:1027F8007F2600087F2600087F2600087F2600081D
:102808007F2600087F2600081727000823270008CE
:10281800012395E7022393E7032391E704238FE736
:10282800114A936823EA0E03936098E70E4AD36827
:1028380023EA0E03D3609BE70B4A536823EA0E038F
:1028480053609EE7084A136823EA0E031360A1E762
:1028580002B070BD000022100000311000100240CC
:102868000000014000080140000401400AB1016174
:102878007047090401617047C36801EA030221EA4D
:10288800030141EA024101617047000082B0084B30
:102898001B68084AA2FB03235B0A00FB03F30193AE
:1028A80000BF019B5A1E0192002BF9D102B070475C
:1028B80000000020D34D6210002800F0F18170B5AF
:1028C80082B00446036813F0010F2CD0994B5B6863
:1028D80003F00C03042B1DD0964B5B6803F00C032C
:1028E800082B12D06368B3F5803F41D0002B55D137
:1028F80003F1804303F504331A6822F480321A6026
:102908001A6822F480221A6037E08A4B5B6813F455
:10291800803FE7D0874B1B6813F4003F03D0636800
:10292800002B00F0BF81236813F0020F75D0814B94
:102938005B6813F00C0F5FD07E4B5B6803F00C03F1
:10294800082B54D02369002B00F08A807A4B01228F
:102958001A60FFF7FBFC0546764B1B6813F0020F65
:1029680075D1FFF7F3FC401B0228F5D903209EE13F
:10297800704A136843F480331360636843B3FFF706
:10298800E5FC05466B4B1B6813F4003FCBD1FFF702
:10299800DDFC401B6428F5D9032088E1B3F5A02F9E
:1029A80009D0644B1A6822F480321A601A6822F43B
:1029B80080221A60E1E703F18043A3F53C331A68EB
:1029C80042F480221A601A6842F480321A60D4E70E
:1029D800FFF7BCFC0546574B1B6813F4003FA2D019
:1029E800FFF7B4FC401B6428F5D903205FE1514B85
:1029F8005B6813F4803FA5D14E4B1B6813F0020FA0
:102A080003D02369012B40F04F814A4A136823F011
:102A1800F803616943EAC1031360236813F0080FE0
:102A280033D0A369002B5CD0434B0122C3F8802428
:102A3800FFF78CFC05463F4B5B6A13F0020F21D170
:102A4800FFF784FC401B0228F5D903202FE1394AFF
:102A5800136823F0F803616943EAC1031360DCE7F4
:102A6800354B00221A60FFF771FC0546314B1B6895
:102A780013F0020FD1D0FFF769FC401B0228F5D9EB
:102A8800032014E10120FFF701FF236813F0040F6E
:102A980000F09680274BDB6913F0805F34D1254B1B
:102AA800DA6942F08052DA61DB6903F080530193FE
:102AB800019B0125214B1B6813F4807F26D0E36816
:102AC800012B3DD0002B53D103F1804303F5043390
:102AD8001A6A22F001021A621A6A22F004021A62C1
:102AE80033E0154B0022C3F88024FFF72FFC05467E
:102AF800104B5B6A13F0020FC7D0FFF727FC401B8F
:102B08000228F5D90320D2E00025D3E70B4A136841
:102B180043F480731360FFF719FC0646074B1B68E4
:102B280013F4807FCBD1FFF711FC801B6428F5D903
:102B38000320BCE000100240000042420070004048
:102B48005F4A136A43F001031362E36833B3FFF784
:102B5800FDFB06465A4B1B6A13F0020F2FD1FFF7F5
:102B6800F5FB801B41F288339842F3D903209EE09D
:102B7800052B09D0524B1A6A22F001021A621A6A0E
:102B880022F004021A62E0E74D4B1A6A42F004028E
:102B98001A621A6A42F001021A62D6E7FFF7D6FBF8
:102BA8000646474B1B6A13F0020F08D0FFF7CEFB0F
:102BB800801B41F288339842F3D9032077E0E5B9C6
:102BC800E369002B72D03E4A526802F00C02082AD0
:102BD80056D0022B17D03B4B00221A66FFF7B6FBE4
:102BE8000446374B1B6813F0007F47D0FFF7AEFB56
:102BF800001B0228F5D9032059E0314AD36923F094
:102C08008053D361DCE72F4B00221A66FFF79EFB47
:102C180005462B4B1B6813F0007F06D0FFF796FB89
:102C2800401B0228F5D9032041E0236AB3F5803F11
:102C38001AD023494B6823F47413226A606A02434A
:102C480013434B601F4B01221A66FFF77FFB0446B4
:102C58001B4B1B6813F0007F0ED1FFF777FB001B9F
:102C68000228F5D9032022E0154A536823F40033DB
:102C7800A1680B435360DCE7002018E0002016E051
:102C8800012B16D00E4B5B6803F48031226A914207
:102C980011D103F47013626A93420ED1002006E04A
:102CA80001207047012002E0012000E0002002B06E
:102CB80070BD0120FBE70120F9E70120F7E700BF1D
:102CC80000100240000042420F4B5B6803F00C0208
:102CD800082A01D00D487047C3F383420C49885C29
:102CE80013F4803F0BD0084B5B68C3F34043094A99
:102CF800D35C064A02FB00F0B0FBF3F07047064BCA
:102D080003FB00F0704700BF0010024000127A0079
:102D1800D0DE0008E0DE000800093D00002800F0D1
:102D2800A08070B50D460446524B1B6803F007039C
:102D38008B420BD24F4A136823F007030B431360EF
:102D4800136803F007038B4240F08D80236813F06B
:102D5800020F17D013F0040F04D0474A536843F406
:102D6800E0635360236813F0080F04D0424A5368A5
:102D780043F460535360404A536823F0F003A1685A
:102D88000B435360236813F0010F31D06368012BA4
:102D980020D0022B25D0384A126812F0020F64D0D6
:102DA80035494A6822F0030213434B60FFF7CEFA15
:102DB8000646314B5B6803F00C036268B3EB820F85
:102DC80016D0FFF7C3FA801B41F288339842F0D936
:102DD800032045E0284A126812F4003FE0D10120A0
:102DE8003EE0254A126812F0007FD9D1012037E071
:102DF800204B1B6803F00703AB420AD91D4A13682E
:102E080023F007032B431360136803F00703AB4257
:102E18002DD1236813F0040F06D0174A536823F402
:102E2800E063E1680B435360236813F0080F07D091
:102E3800114A536823F46053216943EAC10353607C
:102E4800FFF742FF0C4B5B68C3F303130B4AD35CD9
:102E5800D8400B4B18600B4B1868FFF733FA00206B
:102E680070BD012070470120FAE70120F8E7012032
:102E7800F6E700BF0020024000100240B8DE00085C
:102E88000000002008000020014B1868704700BFB0
:102E98000000002008B5FFF7F7FF044B5B68C3F399
:102EA8000223034AD35CD84008BD00BF001002408B
:102EB800C8DE000808B5FFF7E7FF044B5B68C3F3FB
:102EC800C223034AD35CD84008BD00BF00100240AB
:102ED800C8DE00082DE9F04782B005468846174647
:102EE8001E46FFF733FA0A9B1B1A03EB0609FFF786
:102EF8002DFA82462B4B1B68C3F3CB3309FB03F334
:102F080001932B689C6838EA04030CBF4FF0010C4E
:102F18004FF0000CBC4540D0B6F1FF3FF1D0FFF7B1
:102F280015FAA0EB0A0048450AD2B9F1000F07D0FC
:102F3800019A02B14A46019B013B01939146E0E7A1
:102F48002A68536823F0E00353606B68B3F5827F07
:102F58000BD0AB6AB3F5005F14D0012385F851306C
:102F6800002385F85030032018E0AB68B3F5004F14
:102F780002D0B3F5806FECD12A68136823F04003C0
:102F88001360E6E72A68136823F4005313602A687D
:102F9800136843F400531360DFE7002002B0BDE874
:102FA800F08700BF0000002010B582B004460B4631
:102FB800009200228021FFF78DFF08B902B010BDF2
:102FC800636D43F0200363650320F7E7002856D0BC
:102FD80010B50446436A33B94368B3F5827F05D018
:102FE8000023C36102E00023036143610023A3625D
:102FF80094F85130002B3CD0022384F851302268D9
:10300800136823F040031360636803F48273A268B3
:1030180002F404421343E26802F400621343226993
:1030280002F002021343626902F001021343A2692B
:1030380002F400721343E26902F038021343226A71
:1030480002F080021343A26A02F40052216813437B
:103058000B60638B226803F0040353602268D36912
:1030680023F40063D36100206065012384F85130A4
:1030780010BD84F850302046FEF7C4FEBCE701209E
:1030880070472DE9F04383B01D4690F85030012B6E
:1030980000F0D180044688469146012380F85030DC
:1030A800FFF754F9074694F85160F6B2012E40F044
:1030B800BA80B8F1000F00F0B780B9F1000F00F046
:1030C800B380032384F8513000236365C4F830804B
:1030D800A4F83490A4F83690A363A387E3876364C5
:1030E8002364A368B3F5004F1ED023681A6812F052
:1030F800400F03D11A6842F040021A60E368B3F542
:10310800006F1CD0636813B1B9F1010F55D1226B60
:10311800236812781A73236B01332363E38E9BB2FF
:10312800013B9BB2E38648E02268136823F0400322
:1031380013602268136843F480431360D5E763681B
:1031480013B1B9F1010F15D1226B23681288DA6027
:10315800236B02332363E38E9BB2013B9BB2E3866E
:1031680008E0FFF7F3F8C01BA84202D3B5F1FF3F10
:1031780015D1A5B1E38E9BB2002B3CD023689A6889
:1031880012F0020FEDD0226B1288DA60236B023343
:103198002363E38E9BB2013B9BB2E386EAE70123FC
:1031A80084F8513003263FE0FFF7D0F8C01BA8424F
:1031B80002D3B5F1FF3F19D1C5B1E38E9BB2D3B1AC
:1031C80023689A6812F0020FEED0226B12781A73F5
:1031D800236B01332363B4F836C01FFA8CFC0CF15F
:1031E800FF3C1FFA8CFCA4F836C0E6E7012384F8FC
:1031F8005130032618E03A4629462046FFF7D4FE08
:1032080008B120236365A36833B901932368DA689A
:1032180001929B680193019B636D2BB9012384F88C
:103228005130002600E00226002384F85030304652
:1032380003B0BDE8F0830226F9E72DE9F04383B037
:103248001F460A9D90F85030012B00F01681044665
:1032580088469146012380F85030FFF777F80646F4
:1032680094F85130DBB26268012B0AD0B2F5827F44
:1032780040F0F080A268002A40F0F380042B40F070
:10328800F280B8F1000F00F0F080B9F1000F00F003
:10329800EE80002F00F0ED8094F85130DBB2042B63
:1032A80002D0052384F8513000236365C4F83890B0
:1032B800E787A787C4F83080E786A7862364636416
:1032C80023681A6812F0400F03D11A6842F04002CE
:1032D8001A60E368B3F5006F11D063680BB1012F72
:1032E8000BD1226B236812781A73236B0133236383
:1032F800E38E9BB2013B9BB2E38601276EE06368D5
:103308000BB1012F0BD1226B23681288DA60236B73
:1033180002332363E38E9BB2013B9BB2E386012712
:103328001BE023689A6812F0010F0ED0E28F92B268
:103338005AB1DA68A36B1A80A36B0233A363E38FD5
:103348009BB2013B9BB2E3870127FEF7FFFF801B7F
:10335800A84202D3B5F1FF3F1ED1E38E9BB21BB941
:10336800E38F9BB2002B5CD023689A6812F0020F9F
:10337800D7D0E28E92B2002AD3D0002FD1D0226BC0
:103388001288DA60236B02332363E38E9BB2013B1E
:103398009BB2E3860027C4E7012384F85130032059
:1033A80059E023689A6812F0010F0ED0E28F92B2AA
:1033B8005AB1DA68A36B1A70A36B0133A363E38F66
:1033C8009BB2013B9BB2E3870127FEF7BFFF831B3C
:1033D800AB4202D3B5F1FF3F1ED1EDB1E38E9BB2F4
:1033E80013B9E38F9BB2E3B123689A6812F0020F16
:1033F800D7D0E28E92B2002AD3D0002FD1D0226B40
:1034080012781A73236B01332363E38E9BB2013B5B
:103418009BB2E3860027C4E7012384F851300320D8
:1034280019E0324629462046FFF7BEFD70B9A36869
:1034380033B901932368DA6801929B680193019B71
:10344800636DC3B9012384F8513004E02023636518
:10345800012000E00220002384F8503003B0BDE8CA
:10346800F0830220F7E70220F5E70120F3E70120C7
:10347800F1E70120EFE70120EDE70220EEE702681F
:1034880002F10C0353E8003F23F490730C3242E836
:1034980000310029F3D1026802F1140353E8003F18
:1034A80023F00103143242E800310029F3D1036B01
:1034B800012B05D0202380F8423000230363704796
:1034C800026802F10C0353E8003F23F010030C32AA
:1034D80042E800310029F3D1ECE790F84130DBB243
:1034E800212B01D0022070478368B3F5805F17D085
:1034F800036A5A1C02621A7803685A60C38C9BB22A
:10350800013B9BB2C3844BB90268D36823F08003A4
:10351800D3600268D36843F04003D360002070474B
:103528000369002BE4D1036A1B880268C3F308030C
:103538005360036A02330362E0E7000010B50446F3
:103548000268136923F44053C1680B43136183680D
:103558000269134342691A430168CB6823F4B053E4
:1035680023F00C031343CB600268536923F44073C0
:1035780081690B4353610268134B9A4220D0FFF7CD
:1035880089FC024602EB820202EB820263689B001E
:10359800B2FBF3F20D48A0FB02314909642303FB97
:1035A80011231B013233A0FB03235B0903F0F00254
:1035B80002EB011203F00F03216813448B6010BD66
:1035C800FFF778FC0246DDE7003801401F85EB5124
:1035D8002DE9F84305460F4616469946DDF8208042
:1035E8002C68246837EA04030CBF4FF0010C4FF035
:1035F800000CB4452DD1B8F1FF3FF1D0B8F1000F60
:1036080005D0FEF7A3FEA0EB09004045E8D92A68DB
:1036180002F10C0353E8003F23F4D0730C3242E864
:1036280000310029F3D12A6802F1140353E8003F5E
:1036380023F00103143242E800310029F3D120239A
:1036480085F8413085F84230002385F84030032062
:1036580000E00020BDE8F88360B310B5044690F898
:10366800413013B3242384F841302268D36823F40B
:103678000053D3602046FFF761FF2268136923F4E3
:10368800904313612268536923F02A035361226827
:10369800D36843F40053D36000206064202384F887
:1036A800413084F84230606310BD80F84030FEF746
:1036B80063FDD7E7012070472DE9F04182B01E462F
:1036C80090F84130DBB2202B4BD104460D46904692
:1036D80000294AD00AB9012044E000234364212389
:1036E80080F84130FEF732FE0746A4F82480A4F89B
:1036F8002680A368B3F5805F02D04FF000080FE082
:103708002369FBB14FF000080AE038F8023B226851
:10371800C3F308035360E28C92B2013A92B2E28496
:10372800E38C9BB28BB100963B4600228021204659
:10373800FFF74EFFD8B9002DE7D015F8012B236805
:103748005A60E8E7A8460025EAE700963B460022CB
:1037580040212046FFF73CFF58B9202384F8413028
:1037680000E0022002B0BDE8F0810120FAE7032062
:10377800F8E70320F6E7704708B50168CA6822F041
:103788004002CA60202280F84120FFF7F4FF0020A1
:1037980008BD704708B5406A0023C385C384FFF796
:1037A800F8FF08BD704790F84230DBB2222B69D190
:1037B8008368B3F5805F4FD0826AB3F5805F04D029
:1037C800002B56D10369002B53D103685B68137033
:1037D800836A01338362C38D9BB2013B9BB2C3856D
:1037E800002B51D100B583B00268D36823F02003C1
:1037F800D3600268D36823F48073D3600268536986
:1038080023F001035361202380F8423000234363EF
:10381800036B012B33D100230363026802F10C030D
:1038280053E8003F23F010030C3242E8003100292E
:10383800F3D103681A6812F0100F06D00022019223
:103848001A6801925B680193019B818DFFF7AAFFBB
:10385800002003B05DF804FB0269002AACD1826A3B
:1038680003685B68C3F308031380836A02338362C7
:10387800B1E703685B6803F07F031370A8E7FEF7FE
:10388800BFFCE5E7022070470020704730B583B0E1
:10389800044602681368D068516913F00F0505D112
:1038A80013F0200F02D010F0200F19D12DB111F014
:1038B800010119D110F4907F16D1216B01297DD017
:1038C80013F0800F03D010F0800F40F0188113F030
:1038D800400F03D010F0400F40F0158103B030BD09
:1038E8002046FFF760FFF9E713F0010F06D010F448
:1038F800807F03D0626C42F00102626413F0040F0F
:1039080004D019B1626C42F00202626413F0020F33
:1039180004D019B1626C42F00402626413F0080F1B
:1039280007D010F0200F00D119B1626C42F00802E4
:103938006264626C002AD1D013F0200F02D010F01C
:10394800200F29D123685B6903F04003626C12F0F1
:10395800080F00D163B32046FFF791FD23685B6928
:1039680013F0400F20D0226802F1140353E8003FFF
:1039780023F04003143242E800310029F3D1E36B0D
:1039880073B1634A5A63E06BFEF79AFD0028A5D02D
:10399800E06B436B9847A1E72046FFF704FFD1E7A8
:1039A8002046FFF7F6FE99E72046FFF7F2FE95E777
:1039B8002046FFF7EEFE002363648FE713F0100F35
:1039C8003FF47EAF10F0100F3FF47AAF002301935D
:1039D8001368019353680193019B536913F0400FD7
:1039E80051D0E26B13685B689BB2002B3FF476AF53
:1039F800A18D99427FF672AFE3859369202B37D06A
:103A0800226802F10C0353E8003F23F480730C3260
:103A180042E800310029F3D1226802F1140353E887
:103A2800003F23F00103143242E800310029F3D1AA
:103A3800226802F1140353E8003F23F040031432D4
:103A480042E800310029F3D1202384F842300023D2
:103A58002363226802F10C0353E8003F23F01003AC
:103A68000C3242E800310029F3D1E06BFEF704FD87
:103A780002236363A18DE38D9BB2C91A89B22046E4
:103A8800FFF790FE2AE7A18DE38D9BB2C91A89B290
:103A9800E38D9BB2002B3FF421AF00293FF41EAF0A
:103AA800226802F10C0353E8003F23F490730C32B0
:103AB80042E800300028F3D1226802F1140353E8E9
:103AC800003F23F00103143242E800300028F3D10C
:103AD800202384F8423000232363226802F10C0378
:103AE80053E8003F23F010030C3242E8003000286E
:103AF800F3D1022363632046FFF754FEEEE6204627
:103B0800FFF7EBFCEAE62046FFF736FEE6E600BFE5
:103B18009D37000890F8413090F8420018437047EC
:103B280081628285C28500234364222380F8423063
:103B3800036923B10268D36843F48073D3600268D1
:103B4800536943F0010353610268D36843F02003CB
:103B5800D3600020704708B590F84230DBB2202BC4
:103B680008D149B10AB9012008BD00230363FFF752
:103B7800D7FFF9E70220F7E70120F5E7F0B583B0B2
:103B880007462C4B586801AB04220D21007802F03F
:103B980022FB00284BD104469DF80420D21002F0E5
:103BA8001C029DF80710C1F301131A438DF8002079
:103BB8009DF80520D21002F01C02C1F381031A43BC
:103BC8008DF801209DF80630DB1003F01C0301F08E
:103BD80003010B438DF8023018E007EB8405164B00
:103BE80047F8243004E015492868FDF745F82860AF
:103BF80006F108030DEB030212F8083C013BDBB2A7
:103C080002F8083C002BEED10134E4B2022C0BD8A8
:103C1800264604F108036B4413F8083C002BDCD15A
:103C2800002347F82430EFE7002003B0F0BD072059
:103C3800FBE700BF180000207B14AE3E1D5A843FEE
:103C48002DE9F04385B08146884601A8FFF796FF25
:103C580000273C460DE021493046FDF7ABF920B975
:103C68001F493046FDF7C4F910B10123A3401F4393
:103C78000134022C2EDCA50059F8240058F8243011
:103C8800C01A0028B8BF4042FCF7A2FF4FF05E51AF
:103C9800FCF7F2FF064605F110030DEB030555F896
:103CA8000C5C00212846FDF77BF90028D3D1294672
:103CB8003046FDF795F84FF07E51FCF7D3FE20F023
:103CC80000400849FDF794F90028D1D00123A3400A
:103CD8001F43CDE7384605B0BDE8F0839A99993E71
:103CE8003333733F295C0F3E2DE9F04182B007461C
:103CF8008846374B586801AB03220D21007802F043
:103D08006AFA00285FD19DF8043003F01F038DF88C
:103D180004309DF8053003F01F038DF805309DF839
:103D2800063003F01F038DF806300026344626E0DF
:103D38002849FCF7A1FF04F108030DEB030212F870
:103D4800043C013BDBB202F8043C002BF0D10146F5
:103D58002846FDF745F84FF07E51FCF783FE20F02A
:103D680000401D49FDF744F940B10123A3401E431B
:103D780004E01A48DFE70123A3401E430134022C64
:103D880022DC57F8240058F82430C01A0028B8BF9D
:103D98004042FCF71DFF4FF05E51FCF76DFF0546F2
:103DA80004F108036B4413F8043C002BE1D10C49DF
:103DB800FDF700F90028DED10A492846FDF718F971
:103DC8000028DBD0D7E70726304602B0BDE8F081EF
:103DD8001800002054E3853F295C0F3E0000C841CD
:103DE800000020410000D24200B583B0234B93F875
:103DF8002430CBB1A0B102238DF807301F4B58688F
:103E080019680DF107030122C97B007802F0B2F9A5
:103E180048BB9DF80720194B5A7403B05DF804FBA2
:103E280000238DF80730E9E7144B9B7AF3B110B102
:103E3800124B5B7CEBB990B101238DF807300F4B27
:103E4800586819680DF107030122C97B007802F050
:103E580091F980B99DF80720084B5A74DDE70023D3
:103E68008DF80730EBE74FF0FF30D6E74FF0FF3023
:103E7800D3E70020D1E74FF0FF30CEE7180000204D
:103E8800F0B589B005460C46164601238DF8143066
:103E980000238DF81530854B5868196805AB022248
:103EA800897C007802F066F9002840F0CE81C820AD
:103EB800FEF752FA00238DF814307C4B58681968C5
:103EC80005AB0122C97B007802F054F9002840F0C4
:103ED800BF81764B5868196805AB0122497900788B
:103EE80002F048F9002840F0B681704B586819680C
:103EF80005AB0122897C007802F03CF9002840F0EB
:103F0800AD816A4B5868196805AB0122C97D0078F4
:103F180002F030F9002840F0A481644B5868196811
:103F280005AB01220979007802F024F9002840F055
:103F38009B810C238DF814305C4B5868196805ABCD
:103F480001220979007802F015F9002840F08F81E4
:103F58000F20FEF701FA554B9A6A527A8DF8142011
:103F68005868196805AB01228978007802F002F9CF
:103F7800002840F07F814D4B9A6A127A8DF8142000
:103F88005868196805AB01224978007802F0F2F800
:103F9800002840F07281002E79D0444B9B6A9B7AAE
:103FA80063F01F038DF81430404B5868196805AB4F
:103FB80001228979007802F0DDF8002840F060815C
:103FC800002E6AD0394B9B6ADB7A63F01F038DF8A9
:103FD8001430364B5868196805AB0122C979007846
:103FE80002F0C8F8002840F04E81002E59D1402335
:103FF8008DF814302D4B5868196805AB01220979E2
:10400800007802F0B7F8002840F0408178238DF856
:104018001430264B5868196805AB01224979007895
:1040280002F0A8F8002840F034813220FEF794F915
:1040380000238DF814301D4B5868196805AB012210
:104048004979007802F096F8002840F02581174B4E
:104058005868196805AB0222897A007802F0BBF823
:104068000646002840F01B819DF814309DF8157015
:1040780047EA03270E4BA3FB0737C7F3C7070023FD
:10408800AB606B602B60A360636023605CE0074BF0
:104098009B6A9B7A8DF8143086E718238DF81430C4
:1040A80097E7C820FEF758F9A1E700BF18000020DD
:1040B800ABAAAAAA9DF814309DF8151041EA03216D
:1040C80009B2ADF804109DF816309DF8172042EAA1
:1040D800032212B2ADF806209DF818009DF8193099
:1040E80043EA00231BB2ADF8083020680144216080
:1040F80061680A446260A2681344A3609DF81A309C
:104108009DF81B1041EA032109B2ADF80C109DF887
:104118001C309DF81D2042EA032212B2ADF80E2091
:104128009DF81E009DF81F3043EA00231BB2ADF82E
:10413800103028680144296069680A446A60AA68DE
:104148001344AB600136F6B2BE420ED2554B5868E6
:10415800196805AB0C22C97A007802F03CF80028EF
:10416800A8D04FF0FF3009B0F0BD296883220023A2
:1041780008040914FCF78CFF00263A463346FCF77E
:1041880087FF286069688322002308040914FCF764
:104198007FFF3A463346FCF77BFF6860A9688322B5
:1041A800002308040914FCF773FF3A463346FCF76A
:1041B8006FFFA8602068031400041946B3422DDB82
:1041C800C00A3A46334640EA4150C912FCF760FF3C
:1041D80020606068031400041946002B24DBC00A21
:1041E8003A46334640EA4150C912FCF751FF606035
:1041F800A068031400041946002B1BDBC00A3A46CA
:10420800334640EA4150C912FCF742FFA06000283B
:1042180016DDA0F58030A0600020A4E740F2FF7210
:10422800801843F10001CBE740F2FF72801843F198
:104238000001D4E740F2FF72801843F10001DDE786
:1042480000F58030A06000208DE74FF0FF308AE74E
:104258004FF0FF3087E74FF0FF3084E74FF0FF3033
:1042680081E74FF0FF307EE74FF0FF307BE74FF0FC
:10427800FF3078E74FF0FF3075E74FF0FF3072E717
:104288004FF0FF306FE74FF0FF306CE74FF0FF3033
:1042980069E74FF0FF3066E74FF0FF3063E74FF014
:1042A800FF3060E7180000207C4B9B7A002B00F061
:1042B800D48000B583B000238DF80730774B586859
:1042C80019680DF107030122C97B007801F052FF3C
:1042D800002840F0C580714B586819680DF1070334
:1042E80001224979007801F045FF002840F0BB80A1
:1042F8006A4B586819680DF107030122097900789B
:1043080001F038FF002840F0B180644B93F8243066
:10431800002B52D00C238DF80730604B5868196871
:104328000DF1070301220979007801F023FF002825
:1043380040F09F803220FEF70FF8C0238DF8073039
:10434800564B9B7A13F0010F02D0E0238DF807300B
:10435800524B586819680DF1070301220979007852
:1043680001F008FF002840F087804C4B5B7C03B3CA
:1043780002238DF80730494B586819680DF1070377
:104388000122C97B007801F0F5FE002877D10023CF
:104398008DF80730414B586819680DF10703012261
:1043A8004979007801F0E6FE00286BD103B05DF88A
:1043B80004FB00238DF80730DDE704238DF8073070
:1043C800364B586819680DF10703012209790078FE
:1043D80001F0D0FE002858D1304B9B7C23B92F4BDD
:1043E8009B7A13F0010F30D140238DF807302B4B07
:1043F800586819680DF1070301220979007801F05E
:10440800B9FE002844D13220FDF7A6FF234B5B7C80
:10441800FBB101238DF80730204B586819680DF15E
:1044280007030122C97B007801F0A4FE98BB1B4B4F
:10443800586853F8101B01224979007801F09AFE58
:104448000028B3D04FF0FF30B0E760238DF8073075
:10445800CDE700238DF80730DEE74FF0FF307047D7
:104468004FF0FF30A2E74FF0FF309FE74FF0FF30EB
:104478009CE74FF0FF3099E74FF0FF3096E74FF099
:10448800FF3093E74FF0FF3090E74FF0FF308DE7B4
:104498004FF0FF308AE74FF0FF3087E71800002021
:1044A8000D4B1B7A032B13D8DFE803F002060A0E24
:1044B800FA230380002070474FF4FA730380F9E76A
:1044C8004FF47A730380F5E74FF4FA630380F1E75A
:1044D80000230380EEE700BF18000020244B9B7ADE
:1044E800002B3CD000B583B0B0F57A7F33D00BD821
:1044F800FA2813D0B0F5FA7F03D108238DF80730D6
:104508000FE04FF0FF3023E0B0F5FA6F03D1182326
:104518008DF8073005E04FF0FF3019E000238DF8E3
:104528000730134B1B7A9DF80720B3EBD20F19D035
:104538000F4B586819680DF1070301228979007833
:1045480001F018FE80B99DF80730DB08084A13729D
:1045580003B05DF804FB10238DF80730E1E74FF056
:10456800FF3070470020F3E74FF0FF30F0E700BF5F
:10457800180000200F4B5B7A032B16D8DFE803F0F6
:10458800020C0F12022303700A4BDB7C83B1037801
:104598005B0003700020704704230370F4E70823CE
:1045A8000370F1E710230370EEE74FF0FF30704718
:1045B8000020704718000020234B9B7A002B35D031
:1045C80000B583B002380E2833D8DFE800F008328F
:1045D8002332323227323232323232322B00002347
:1045E8008DF80730184B5B7A9DF80720B3EBD20F94
:1045F80024D0154B586819680DF107030122C979B1
:10460800007801F0B7FDD8B99DF80730DB080E4AED
:10461800537210E008238DF80730E3E710238DF874
:104628000730DFE718238DF80730DBE74FF0FF305E
:1046380070474FF0FF3003B05DF804FB0020FAE745
:104648004FF0FF30F7E700BF180000200F4BDB7A70
:10465800013B052B17D8DFE803F003070A0D1013F9
:10466800BC2303800020704762230380FAE72A23D3
:104678000380F7E714230380F4E70A230380F1E7B4
:1046880005230380EEE700230380EBE718000020F2
:10469800234B9B7A002B3AD000B583B0BB281AD99C
:1046A80001238DF807301E4BDA7A9DF807309A42BD
:1046B80030D01B4B586819680DF10703012289781F
:1046C800007801F057FD38BB9DF80720144BDA72CB
:1046D80003B05DF804FB612803D902238DF8073085
:1046E800E1E7292803D903238DF80730DBE71328EE
:1046F80003D904238DF80730D5E7092803D9052302
:104708008DF80730CFE706238DF80730CBE74FF059
:10471800FF3070470020DBE74FF0FF30D8E700BFDD
:1047280018000020054B93F8243023B9034BDB898C
:104738000380002070474FF0FF30704718000020BA
:104748000D4B1B7A032B13D8DFE803F002060A0E81
:104758000A4B036000207047094B03600020704734
:10476800084B036000207047074B03600020704728
:104778004FF0FF30704700BF1800002000000343CF
:10478800000083423333034233338341114B5B7A56
:10479800032B1AD8DFE803F0020D11154FF48043FC
:1047A80003800C4BDB7C9BB103885B0803800020F3
:1047B800704741F69C730380F3E74FF480530380FE
:1047C800EFE74FF400630380EBE74FF0FF307047EB
:1047D8000020704718000020024B1B7C037000204B
:1047E800704700BF1800002070B5174B93F82430AD
:1047F8002BBB00F0FE04144B9B7A13B3124A167CB1
:1048080023401374A3420BD04FF0FF3514B90E4B5D
:104818001B7D3BB10120FFF7E7FA3CB9284670BD84
:104828000025F3E70020FFF7DFFAF6E7FFF73CFD86
:104838000028F3D0044B1E744FF0FF35EEE7002537
:10484800ECE74FF0FF35E9E7180000202E4B93F80E
:104858002430002B49D0F0B583B005460F461646E4
:10486800294B9B7A002B43D0274B5868196801AB1A
:104878000222897A007801F0AEFC00283BD19DF82D
:1048880004009DF8054044EA0024AC4223D31E4BA3
:1048980058684388B4EB530F0DD91B4B196801AB0B
:1048A8000122497C007801F096FC38BB9DF8043061
:1048B80013F0100F14D1144B586819683B46EAB22C
:1048C800C97A007801F087FCD8B9B4FBF5F4013C4B
:1048D800347003B0F0BD002333704FF0FF30F8E7B9
:1048E800FFF7E2FC6FF00100F3E74FF0FF3070478D
:1048F8004FF0FF30EDE74FF0FF30EAE74FF0FF30C1
:10490800E7E74FF0FF30E4E718000020584B9B7CA6
:10491800834200F09C8010B582B00446002844D041
:10492800534B586819680DF107030122097900787B
:1049380001F051FC002840F08C809DF8073023F0EE
:1049480020038DF807304A4B586819680DF10703A2
:1049580001220979007801F00DFC00287CD10320A0
:10496800FDF7FAFC02238DF80730414B93F822300B
:1049780013B182238DF807303D4B93F823302BB1C8
:104988009DF8073043F030038DF80730384B5868EE
:1049980019680DF107030122097D007801F0EAFB8F
:1049A800002844D04FF0FF3044E0314B5868196874
:1049B8000DF1070301220979007801F00CFC0028A9
:1049C8004DD12B4B9B7A13F0010F35D09DF8073052
:1049D80043F020038DF80730254B586819680DF10E
:1049E800070301220979007801F0C4FB002839D1B6
:1049F8000320FDF7B1FC1E4B93F822301BB3802334
:104A08008DF807301A4B93F823302BB19DF80730F7
:104A180043F030038DF80730154B586819680DF1CD
:104A280007030122097D007801F0A4FBE8B9104BC7
:104A38009C74002002B010BD9DF8073023F02003BD
:104A48008DF80730C8E700238DF80730DAE7002033
:104A580070474FF0FF30EDE74FF0FF30EAE74FF0D7
:104A6800FF30E7E74FF0FF30E4E74FF0FF30E1E7D2
:104A7800180000201B4B93F8233083422DD010B52B
:104A880082B0044628B330238DF80730154B9B7C41
:104A98002BB19DF8073043F002038DF80730114B16
:104AA80093F822302BB19DF8073063F07F038DF81F
:104AB80007300C4B586819680DF107030122097D6E
:104AC800007801F057FB50B9064B83F8234002B039
:104AD80010BD00238DF80730D8E7002070474FF04D
:104AE800FF30F4E71800002028285FD810B582B0FE
:104AF8000446B8B90020FFF7BDFF00238DF8043045
:104B080007238DF805302E4B5868196801AB02222F
:104B1800897C007801F02EFB00284AD1284B1875B3
:104B280002B010BD0120FFF7A5FF20238DF8043047
:104B3800012C26D0052C2BD9142C30D802238DF823
:104B480005300A20FFF7A4FD9DF805309B0143F0CE
:104B580007038DF805301A4B5868196801AB022213
:104B6800897C007801F006FB30BB154B08229A724D
:104B780000241C7301221A752046FFF735FE2046D3
:104B8800CEE700238DF805300520FFF781FDDBE730
:104B980001238DF805300520FFF77AFDD4E70323BC
:104BA8008DF805301420FFF773FDCDE74FF0FF3087
:104BB80070474FF0FF30B3E74FF0FF30B0E700BF6A
:104BC80018000020264B9B7A002B40D010B582B0ED
:104BD8000446234B93F82430002B3BD1204B1B7DFC
:104BE80033B1431E9BB2272B0AD90020FFF77CFF65
:104BF800032C0AD9B4F57A7F08D94FF47A7405E002
:104C0800C0B2FFF771FF00201FE004244FF47A7050
:104C180090FBF4F4013C8DF80740114B5868196873
:104C28000DF1070301224978007801F0A3FAA0B931
:104C38009DF80700431C4FF47A7090FBF3F0084B83
:104C4800D8814008FFF724FD002002B010BD4FF0C6
:104C5800FF3070474FF0FF30F7E74FF0FF30F4E7D1
:104C68001800002010B582B0044610F0700F50D024
:104C780001238DF80730334B586819680DF1070385
:104C88000122897C007801F075FA00284AD19DF844
:104C9800073003F0BF032B4A137300238DF8073046
:104CA80014F0400F02D104238DF8073014F0200FC0
:104CB80005D19DF8073043F002038DF8073014F052
:104CC800100F05D19DF8073043F001038DF8073028
:104CD80014F0080F05D19DF8073043F038038DF81C
:104CE8000730184B586819680DF107030122C97C71
:104CF800007801F03FFAD8B90CB1082C1ED1114B3D
:104D08009C7200241C753220FDF726FB204602B059
:104D180010BD18B100238DF80730ACE740238DF89B
:104D28000730A8E7074B00229A724FF0FF30EEE7F2
:104D3800044B00229A724FF0FF30E8E70020FFF79B
:104D480099FEDCE71800002010B582B080238DF8AA
:104D58000030674B586819686B460122897C0078D7
:104D680001F008FA002840F0A4806420FDF7F4FA66
:104D780000238DF800305E4B586819686B46012295
:104D8800897C007801F0F6F9002840F09580584BAE
:104D9800586819686B460622897D007801F01BFA6D
:104DA800002840F08C809DF80510890001F004016E
:104DB8009DF803305B0003F0020319439DF90130AD
:104DC80003F00103194352D0012946D0022948D1E2
:104DD800474B0022DA74464BFF229A721A725A72B3
:104DE800DA724FF6FF71D9811A749A7401221A7314
:104DF80083F82220002283F823205A751A75C3F8F5
:104E08001620C3F81A20C3F81E2083F8242083F83C
:104E18002520DA844FF4FA60FFF760FB002854D1AC
:104E28000220FFF7C9FB002852D12A20FFF730FCE7
:104E3800002850D13220FFF7C5FE00284ED1FFF7D9
:104E4800D3FC00284DD1FFF761FD044600284BD163
:104E5800FFF708FF204602B010BD254B0122DA7487
:104E6800B9E7244802F042FA4FF0FF34F2E7204B4A
:104E7800586819686B460122C978007801F0ABF9C7
:104E880000BB9DF8003013F00F0305D0042B09D0A8
:104E9800174B0022DA749EE7174802F089FA4FF0A0
:104EA800FF34D7E7154802F083FA114B0122DA7470
:104EB80091E74FF0FF34CDE74FF0FF34CAE74FF0EA
:104EC800FF34C7E74FF0FF34C4E74FF0FF34C1E7C2
:104ED8004FF0FF34BEE74FF0FF34BBE74FF0FF342D
:104EE800B8E74FF0FF34B5E74FF0FF34B2E700BF43
:104EF80018000020E4DE00080CDF000858DF000876
:104F08003AB370B582B00C461646194B9B7A1BB360
:104F1800030A8DF80430C0B28DF805000844144B1C
:104F28005D686B8998421ADC114B196801AB022243
:104F3800097E287801F01EF9A0B90D4B5868196848
:104F48003346E2B2497D007801F014F968B902B03D
:104F580070BD4FF0FF3070474FF0FF30F7E74FF06C
:104F6800FF30F4E74FF0FF30F1E74FF0FF30EEE7A6
:104F7800180000203AB370B582B00C461646194B9B
:104F88009B7A1BB3030A8DF80430C0B28DF8050074
:104F98000844144B5D686B8998421ADC114B1968F8
:104FA80001AB0222097E287801F0E4F8A0B90D4B84
:104FB800586819683346E2B2497D007801F00BF968
:104FC80068B902B070BD4FF0FF3070474FF0FF3046
:104FD800F7E74FF0FF30F4E74FF0FF30F1E74FF01D
:104FE800FF30EEE7180000202DE9F04F87B09A4611
:104FF800294B93F82530002B3CD10746884691462B
:1050080000293AD00024BC421BD23E1B102EA8BF58
:105018001026B5B208EB040B5A4629462046FFF77E
:105028006FFF68BB02AA29462046FFF7A3FF50BBC3
:105038002A4602A9584602F0D3F838BB2C44A4B239
:10504800E1E74FEA19238DF804308DF80590124BEB
:105058005868196801AB0222897E007801F08AF845
:10506800B8B90D4B012283F82520A3F826A007B074
:10507800BDE8F08F4FF0FF30F9E74FF0FF30F6E76B
:105088004FF0FF30F3E74FF0FF30F0E76FF001002B
:10509800EDE74FF0FF30EAE718000020234B93F8C4
:1050A800243083423CD030B583B018B31F4B93F8FB
:1050B8002530002B36D00020FEF796FE0020FFF7A3
:1050C80025FC1A4DE88CFFF77DFD00248DF807407C
:1050D80068680DF1070301222321007801F04AF8DE
:1050E800012085F82400FEF77FFEFFF7DDF8204653
:1050F80003B030BD0020FEF777FE0C4D2B7C8DF8F9
:10510800073068680DF1070301222321007801F0B8
:1051180031F8002485F82440FFF7C6F82046E7E771
:10512800002070474FF0FF30E2E700BF1800002072
:105138002DE9F04188B005460E463D4B93F82470A2
:10514800FFB901A8FFF7ACF90DF10700FFF712FA54
:105158006846FFF77BFA0DF10200FFF7E3FA344BDC
:1051680093F80A800DF10600FFF736FB0024012CA6
:105178000CDC002231462846FEF782FE30B10134AD
:10518800F5E70020FFF78AFF0127DAE7022C1FD096
:105198000024012C07DC012202A905A8FEF770FEF5
:1051A80008B10134F5E7022C14D002A93046FEF705
:1051B80047FDC6B205A92846FEF796FD10F0FF0F79
:1051C80004D000243EB944F0020404E00124F9E7C5
:1051D800002400E00024164BFF221A725A72DA7279
:1051E8004FF6FF71D9819A721A7401221A73BDF8A9
:1051F8000400FFF773F99DF80700FFF7DDF9BDF824
:105208000000FFF745FABDF80200FFF7DBFC404657
:10521800FFF728FD9DF80600FFF7E6FA1FB92046BC
:1052280008B0BDE8F0810120FFF738FFF7E700BFBD
:105238001800002010B588B002A905A8FFF778FF6C
:10524800032802D0012008B010BD01A8FFF778FAA2
:10525800019C0598FBF7BCFC2146FBF70DFDFBF70D
:10526800D1FE05900698FBF7B3FC2146FBF704FD39
:10527800FBF7C8FE06900798FBF7AAFC2146FBF748
:10528800FBFCFBF7BFFE079005A800F04DFA0DF1F7
:105298000200FFF77BFABDF80220029B02FB03F332
:1052A8000293039B02FB03F30393049B02FB03F3A8
:1052B800049302A800F0C0FA0020C4E790F9003077
:1052C800002B01DD002070470FDB90F90130002B27
:1052D80001DD012070470ADB90F90230002B08DC61
:1052E80001DB07207047062070470420704705201F
:1052F80070470220704738B50546FFF7DFFF0446C0
:10530800E81CFFF7DBFF44EAC00424B2A81DFFF73E
:10531800D5FF44EA801080B238BD704708B501F067
:10532800F9F8FFF711FDC0BB7820FFF79BFC10F0E0
:10533800FF0F01D0012031E07820FFF755FA10F077
:10534800FF0F2CD16420FFF73DFC10F0FF0F28D190
:1053580000F038F910F0FF0F25D11848FFF7CBFF00
:1053680000F03CF910F0FF0F1FD140F2731000F06D
:10537800FBFC10F0FF0F1AD1642000F0D7FA10F0F0
:10538800FF0F16D1FFF756FFA8B90120FFF786FED9
:1053980010F0FF0002D0092000E00A2008BD02201A
:1053A800FCE70320FAE70420F8E70520F6E70620E3
:1053B800F4E70720F2E70820F0E700BF0C00002020
:1053C8002DE9F04F8FB00646029193460DF1210367
:1053D80001930DF1220300930DAB04AA09A90BA8B0
:1053E80000F0CEFD002840F0C780BDF8223013F44D
:1053F800807F00F0C3800498FBF7EAFB4FF042512E
:10540800FBF73AFC82460598FBF7E2FB4FF0425166
:10541800FBF732FC05460698FBF7DAFB4FF04251E2
:10542800FBF72AFC04460798FBF7D2FB4FF04251E2
:10543800FBF722FC07464FF040412846FBF71CFCCF
:1054480081463946FBF718FC804651465046FBF723
:105458000BFB03902146FBF70FFC01464046FBF788
:1054680003FBFBF741F807F03FFF45A3D3E900230F
:10547800FBF792F8FBF7A2FA306021462046FBF7CB
:10548800F3FA80463946FBF7F7FB064629460398A8
:10549800FBF7F2FB01463046FBF7E6FA06462946DB
:1054A8004846FBF7E9FB814621464046FBF7E4FB0B
:1054B80001464846FBF7D6FA4FF07E51FBF7D4FA7F
:1054C800FBF712F8804689463046FBF70DF842464E
:1054D8004B4607F031FF2AA3D3E90023FBF75CF81A
:1054E800FBF76CFA029B186021462846FBF7C4FBC1
:1054F800064639465046FBF7BFFB01463046FBF7E8
:10550800B3FA0146FBF7B0FA064651465046FBF798
:10551800B3FB804629462846FBF7AEFB01464046CA
:10552800FBF7A2FA054621462046FBF7A5FB0146F4
:105538002846FBF797FA044639463846FBF79CFBA2
:1055480001462046FBF78EFAFAF7CEFF04460D46D1
:105558003046FAF7C9FF22462B4607F0EDFE08A3AE
:10556800D3E90023FBF718F8FBF728FACBF800007B
:1055780000200FB0BDE8F08F0120FAE70220F8E71D
:105588006666666666A64C4038B50446C5784378B4
:1055980013F0010F09D005F03F00C00805F007011E
:1055A8000131074B1B6803B19847637813F0080F64
:1055B80004D0034B5B680BB1A8099847002038BD9D
:1055C8002C0C002008B5C8234FF48062024940F62D
:1055D800F630FFF709FD08BD00E0000810B586B0F9
:1055E80004464C4B1B68ADF80C301B0C8DF80E3084
:1055F800494B1B68ADF808301B0C8DF80A30474B37
:105608001B68ADF804301B0C8DF80630444B1B6842
:10561800ADF800301B0C8DF8023000F0030101F1E9
:1056280018030DEB030111F80C3C8DF81430C0F38E
:10563800C10202F118030DEB030212F80C3C8DF8BD
:105648001530C0F3811318336B4413F80C0C8DF824
:10565800160011F8101C8DF8101012F8102C8DF887
:10566800112013F8103C8DF8123005AA032140F2DE
:105678002640FFF745FC002840D104AA032140F248
:105688002A40FFF73DFC00283BD1019BADF81430C0
:105698001B0C8DF81630009BADF810301B0C8DF8E4
:1056A800123014F0040F05D037238DF81430272357
:1056B8008DF8103014F0200F05D057238DF81530D1
:1056C80047238DF8113014F4807F05D077238DF8A7
:1056D800163067238DF8123005AA03214FF488602D
:1056E800FFF70EFC80B904AA032140F23140FFF70E
:1056F80007FC60B90B4B1C8106B010BD4FF0FF30A2
:10570800FAE74FF0FF30F7E74FF0FF30F4E74FF0DC
:10571800FF30F1E7C8DF0008CCDF0008D0DF000861
:10572800D4DF00082C0C002030B585B0404B1B8915
:1057380003F0030250F82220019213F0040F01D065
:1057480052420192C3F3C10250F82220029213F090
:10575800200F01D052420292C3F3811250F8222046
:10576800039213F4807F01D052420392019BD81711
:10577800304AA3FB023102FB00119B0F43EA81036D
:1057880001930299C817A1FB021502FB0055890F66
:1057980041EA85050295039CE017A4FB024102FB40
:1057A8000012A40F44EA820403941A0E8DF8002014
:1057B800C3F307428DF80120C3F307228DF80220B6
:1057C8008DF803306A4604214FF47470FFF798FB94
:1057D80040BB2B0E8DF80030C5F307438DF8013020
:1057E800C5F307238DF802308DF803506A4604216B
:1057F8004FF47570FFF784FBB8B9230E8DF80030AD
:10580800C4F307438DF80130C4F307238DF8023041
:105818008DF803406A4604214FF47670FFF770FB59
:1058280005B030BD4FF0FF30FAE74FF0FF30F7E733
:105838002C0C002009E3CA0210B588B004460DF10B
:105848000600FEF7A3FFBDF806C04FEACC3C364B76
:105858001A8902F0030354F82330059312F0040F59
:1058680001D05B420593C2F3C10354F82330069379
:1058780012F0200F01D05B420693C2F3811354F853
:105888002330079312F4807F01D05B420793059978
:10589800CA17A1FB0C130CFB0233890F41EA8301E1
:1058A8000591069AD017A2FB0C230CFB0033920F2C
:1058B80042EA83020692079BDC17A3FB0C300CFB21
:1058C800040C9B0F43EA8C030793080E8DF808001D
:1058D800C1F307408DF80900C1F307208DF80A00CD
:1058E8008DF80B10110E8DF80C10C2F307418DF8CE
:1058F8000D10C2F307218DF80E108DF80F201A0E27
:105908008DF81020C3F307428DF81120C3F3072246
:105918008DF812208DF8133002AA0C214FF425704F
:10592800FFF7EEFA08B010BD2C0C002010B586B0B9
:105938000446164B93E8070006AB03E90700C82C9A
:105948001AD8C82393FBF4F3013B1A0E8DF80420F0
:105958008DF8053001AA022140F21620FFF7D0FA8F
:1059680068B903AA0C2140F6C120FFF7C9FA48B963
:10597800074B9C8106B010BD4FF0FF30FAE74FF09F
:10598800FF30F7E74FF0FF30F4E700BFD8DF00083B
:105998002C0C002070B582B0044610F0070F00F000
:1059A800AC800846B1F5C86F00F2AA80FBF70CF985
:1059B8005B49FBF715FA05460DF10300FEF7DAFD22
:1059C8009DF80330023B0E2B00F29D80DFE803F0C8
:1059D800089B2C9B9B9B3C9B9B9B9B9B9B9B4C005A
:1059E8004FF08D412846FBF747F9FBF731FB86B2AC
:1059F8004C492846FBF740F9FBF72AFB80B2330AEB
:105A08008DF804308DF80560030A8DF806308DF89E
:105A1800070014F0010F37D114F0020F48D114F029
:105A2800040F58D1002070E04FF08C412846FBF756
:105A380023F9FBF70DFB86B23B492846FBF71CF917
:105A4800FBF706FB80B2DAE74FF08B412846FBF7FD
:105A580013F9FBF7FDFA86B234492846FBF70CF92F
:105A6800FBF7F6FA80B2CAE74FF08A412846FBF7FF
:105A780003F9FBF7EDFA86B22D492846FBF7FCF847
:105A8800FBF7E6FA80B2BAE701AA02214FF4EA70FE
:105A9800FFF736FA00283AD10DF1060202214FF439
:105AA8009270FFF72DFA0028B6D04FF0FF302CE0A7
:105AB80001AA02214FF4EC70FFF722FA50BB0DF156
:105AC800060202214FF49470FFF71AFA0028A6D0B4
