:020000040800F2
:1000000000C00020D9160008891400088B140008CD
:100010008D1400088F1400089114000800000000DF
:100020000000000000000000000000009314000821
:1000300095140008000000009714000899140008A7
:1000400021170008211700082117000821170008B0
:1000500021170008211700082117000821170008A0
:100060002117000821170008211700082117000890
:100070002117000821170008211700082117000880
:100080002117000821170008211700082117000870
:100090002117000821170008211700082117000860
:1000A0002117000821170008211700082117000850
:1000B0002117000821170008211700082117000840
:1000C0002117000821170008211700082117000830
:1000D00021170008A11400082117000821170008A3
:1000E0002117000821170008211700082117000810
:1000F0002117000821170008211700082117000800
:1001000021170008211700082117000821170008EF
:1001100021170008211700082117000821170008DF
:1001200021170008211700082117000821170008CF
:1001300000000000000000000000000000000000BF
:1001400000000000000000000000000000000000AF
:10015000000000000000000000000000000000009F
:10016000000000000000000000000000000000008F
:10017000000000000000000000000000000000007F
:10018000000000000000000000000000000000006F
:10019000000000000000000000000000000000005F
:1001A000000000000000000000000000000000004F
:1001B000000000000000000000000000000000003F
:1001C000000000000000000000000000000000002F
:1001D000000000000000000000000000000000001F
:0401E0005FF8E0F1F3
:1001E80010B5054C237833B9044B13B10448AFF369
:1001F80000800123237010BDB80900200000000012
:100208004896000808B5034B1BB103490348AFF3F0
:10021800008008BD00000000BC09002048960008C6
:1002280081F0004102E000BF83F0004330B54FEA9F
:1002380041044FEA430594EA050F08BF90EA020F0C
:100248001FBF54EA000C55EA020C7FEA645C7FEA9F
:10025800655C00F0E2804FEA5454D4EB5555B8BFC2
:100268006D420CDD2C4480EA020281EA030382EA33
:10027800000083EA010180EA020281EA0303362DC5
:1002880088BF30BD11F0004F4FEA01314FF4801C98
:100298004CEA113102D0404261EB410113F0004FAA
:1002A8004FEA03334CEA133302D0524263EB430361
:1002B80094EA050F00F0A780A4F10104D5F1200EFF
:1002C8000DDB02FA0EFC22FA05F2801841F100015A
:1002D80003FA0EF2801843FA05F359410EE0A5F12E
:1002E80020050EF1200E012A03FA0EFC28BF4CF05F
:1002F800020C43FA05F3C01851EBE37101F0004515
:1003080007D54FF0000EDCF1000C7EEB00006EEB21
:100318000101B1F5801F1BD3B1F5001F0CD34908AB
:100328005FEA30004FEA3C0C04F101044FEA445202
:1003380012F5800F80F09A80BCF1004F08BF5FEA89
:10034800500C50F1000041EB045141EA050130BD69
:100358005FEA4C0C404141EB0101013C28BFB1F57B
:10036800801FE9D291F0000F04BF01460020B1FAC6
:1003780081F308BF2033A3F10B03B3F120020CDA99
:100388000C3208DD02F1140CC2F10C0201FA0CF077
:1003980021FA02F10CE002F11402D8BFC2F1200CDC
:1003A80001FA02F120FA0CFCDCBF41EA0C01904092
:1003B800E41AA2BF01EB0451294330BD6FEA0404DB
:1003C8001F3C1CDA0C340EDC04F11404C4F12002C6
:1003D80020FA04F001FA02F340EA030021FA04F3D8
:1003E80045EA030130BDC4F10C04C4F1200220FA2F
:1003F80002F001FA04F340EA0300294630BD21FA6D
:1004080004F0294630BD94F0000F83F4801306BF32
:1004180081F480110134013D4EE77FEA645C18BF26
:100428007FEA655C29D094EA050F08BF90EA020FBD
:1004380005D054EA000C04BF1946104630BD91EAB5
:10044800030F1EBF0021002030BD5FEA545C05D1B8
:100458004000494128BF41F0004130BD14F58004F7
:100468003CBF01F5801130BD01F0004545F0FE416B
:1004780041F470014FF0000030BD7FEA645C1ABFA0
:10048800194610467FEA655C1CBF0B46024650EAD7
:10049800013406BF52EA033591EA030F41F4002103
:1004A80030BD00BF90F0000F04BF0021704730B589
:1004B8004FF4806404F132044FF000054FF000015E
:1004C80050E700BF90F0000F04BF0021704730B51F
:1004D8004FF4806404F1320410F0004548BF4042F4
:1004E8004FF000013EE700BF42004FEAE2014FEA49
:1004F80031014FEA02701FBF12F07F4393F07F4F24
:1005080081F06051704732F07F4208BF704793F026
:100518007F4F04BF41F40021704730B54FF4607439
:1005280001F0004521F000411CE700BF50EA01023C
:1005380008BF704730B54FF000050AE050EA0102E5
:1005480008BF704730B511F0004502D5404261EB55
:1005580041014FF4806404F132045FEA915C3FF496
:10056800D8AE4FF003025FEADC0C18BF03325FEA33
:10057800DC0C18BF033202EBDC02C2F1200300FAE4
:1005880003FC20FA02F001FA03FE40EA0E0021FA09
:1005980002F11444BDE600BF4FEA4102B2F1E04364
:1005A80024BFB3F5001CDCF1FE5C0DD901F0004C52
:1005B8004FEAC0024CEA5070B2F1004F40EB8300A2
:1005C80008BF20F00100704711F0804F21D113F1CE
:1005D8003872BCBF01F00040704741F480114FEA07
:1005E8005252C2F11802C2F1200C10FA0CF320FA90
:1005F80002F018BF40F001004FEAC1234FEAD323AD
:1006080003FA0CFC40EA0C0023FA02F34FEA430316
:10061800CCE77FEA625307D150EA01331EBF4FF09F
:10062800FE4040F44000704701F0004040F0FE40BA
:1006380040F40000704700BF844641EA000313F00D
:10064800030349D1403A23D30B6803604B684360E6
:100658008B688360CB68C3600B6903614B69436136
:100668008B698361CB69C3610B6A03624B6A43621E
:100678008B6A8362CB6AC3620B6B03634B6B436306
:100688008B6B8363CB6BC36340304031403ADBD222
:1006980030320BD30B6803604B6843608B68836010
:1006A800CB68C36010301031103AF3D20C3205D346
:1006B80051F8043B40F8043B043AF9D2043208D01C
:1006C800D2071CBF11F8013B00F8013B01D30B888E
:1006D80003806046704700BF082A13D38B07B1D048
:1006E80010F00303AED0C3F10403D21ADB071CBF1A
:1006F80011F8013B00F8013BA4D331F8023B20F884
:10070800023B9FE7043AD9D3013A11F8013B00F8BC
:10071800013BF9D20B7803704B7843708B78837068
:100728006046704770B54FF0FF0C4CF4E06C1CEA63
:1007380011541DBF1CEA135594EA0C0F95EA0C0FCF
:1007480000F0DEF82C4481EA030621EA4C5123EA42
:100758004C5350EA013518BF52EA033541F4801171
:1007680043F4801338D0A0FB02CE4FF00005E1FB24
:1007780002E506F00042E0FB03E54FF00006E1FB6E
:1007880003569CF0000F18BF4EF0010EA4F1FF04B1
:10079800B6F5007F64F5407404D25FEA4E0E6D41F1
:1007A80046EB060642EAC62141EA55514FEAC52002
:1007B80040EA5E504FEACE2EB4F1FD0C88BFBCF57E
:1007C800E06F1ED8BEF1004F08BF5FEA500E50F12F
:1007D800000041EB045170BD06F0004646EA0101F5
:1007E80040EA020081EA0301B4EB5C04C2BFD4EB27
:1007F8000C0541EA045170BD41F480114FF0000E20
:10080800013C00F3AB8014F1360FDEBF002001F08D
:10081800004170BDC4F10004203C35DA0C341BDC07
:1008280004F11404C4F1200500FA05F320FA04F0D9
:1008380001FA05F240EA020001F0004221F000410D
:1008480010EBD37021FA04F642EB06015EEA430E80
:1008580008BF20EAD37070BDC4F10C04C4F12005B0
:1008680000FA04F320FA05F001FA04F240EA020063
:1008780001F0004110EBD37041F100015EEA430E34
:1008880008BF20EAD37070BDC4F1200500FA05F254
:100898004EEA020E20FA04F301FA05F243EA0203D3
:1008A80021FA04F001F0004121FA04F220EA0200E2
:1008B80000EBD3705EEA430E08BF20EAD37070BD28
:1008C80094F0000F0FD101F00046400041EB010108
:1008D80011F4801F08BF013CF7D041EA060195F0EA
:1008E800000F18BF704703F00046520043EB0303A4
:1008F80013F4801F08BF013DF7D043EA0603704791
:1009080094EA0C0F0CEA135518BF95EA0C0F0CD09B
:1009180050EA410618BF52EA4306D1D181EA0301E1
:1009280001F000414FF0000070BD50EA410606BFDB
:100938001046194652EA430619D094EA0C0F02D120
:1009480050EA013613D195EA0C0F05D152EA033665
:100958001CBF104619460AD181EA030101F0004183
:1009680041F0FE4141F470014FF0000070BD41F0CC
:10097800FE4141F4780170BD70B54FF0FF0C4CF4A6
:10098800E06C1CEA11541DBF1CEA135594EA0C0FC5
:1009980095EA0C0F00F0A7F8A4EB050481EA030E12
:1009A80052EA03354FEA013100F088804FEA0333F9
:1009B8004FF0805545EA131343EA12634FEA0222C7
:1009C80045EA111545EA10654FEA00260EF0004188
:1009D8009D4208BF964244F1FD0404F5407402D2DA
:1009E8005B084FEA3202B61A65EB03055B084FEA6B
:1009F80032024FF480104FF4002CB6EB020E75EB68
:100A0800030E22BFB61A754640EA0C005B084FEA8F
:100A18003202B6EB020E75EB030E22BFB61A75460C
:100A280040EA5C005B084FEA3202B6EB020E75EB57
:100A3800030E22BFB61A754640EA9C005B084FEACF
:100A48003202B6EB020E75EB030E22BFB61A7546DC
:100A580040EADC0055EA060E18D04FEA051545EACB
:100A680016754FEA06164FEAC30343EA52734FEA74
:100A7800C2025FEA1C1CC0D111F4801F0BD141EAED
:100A880000014FF000004FF0004CB6E711F4801F52
:100A980004BF01430020B4F1FD0C88BFBCF5E06F32
:100AA8003FF6AFAEB5EB030C04BFB6EB020C5FEA42
:100AB800500C50F1000041EB045170BD0EF0004E97
:100AC8004EEA113114EB5C04C2BFD4EB0C0541EAC9
:100AD800045170BD41F480114FF0000E013C90E6C6
:100AE80045EA060E8DE60CEA135594EA0C0F08BF8A
:100AF80095EA0C0F3FF43BAF94EA0C0F0AD150EA89
:100B080001347FF434AF95EA0C0F7FF425AF10461B
:100B180019462CE795EA0C0F06D152EA03353FF443
:100B2800FDAE1046194622E750EA410618BF52EAC0
:100B380043067FF4C5AE50EA41047FF40DAF52EA94
:100B480043057FF4EBAE12E74FF0FF3C06E000BF31
:100B58004FF0010C02E000BF4FF0010C4DF804CD3E
:100B68004FEA410C7FEA6C5C4FEA430C18BF7FEAFE
:100B78006C5C1BD001B050EA410C0CBF52EA430C2C
:100B880091EA030F02BF90EA020F0020704710F1AC
:100B9800000F91EA030F58BF994208BF90422CBF3B
:100BA800D8176FEAE37040F0010070474FEA410C34
:100BB8007FEA6C5C02D150EA013C07D14FEA430C52
:100BC8007FEA6C5CD6D152EA033CD3D05DF8040BC3
:100BD800704700BF8446104662468C4619466346F5
:100BE80000E000BF01B5FFF7B7FF002848BF10F1CC
:100BF800000F01BD4DF808EDFFF7F4FF0CBF012011
:100C080000205DF808FB00BF4DF808EDFFF7EAFF8C
:100C180034BF012000205DF808FB00BF4DF808ED47
:100C2800FFF7E0FF94BF012000205DF808FB00BF3C
:100C38004DF808EDFFF7CEFF94BF012000205DF8C6
:100C480008FB00BF4DF808EDFFF7C4FF34BF0120D3
:100C580000205DF808FB00BF4FEA410C7FEA6C5C9E
:100C680002D150EA013C0AD14FEA430C7FEA6C5C9E
:100C780002D152EA033C02D14FF0000070474FF016
:100C8800010070474FEA410212F5001215D211D542
:100C98006FF47873B3EB625212D94FEAC12343F071
:100CA800004343EA505311F0004F23FA02F018BFF3
:100CB800404270474FF00000704750EA013005D1BC
:100CC80011F0004008BF6FF0004070474FF000007F
:100CD800704700BF53B94AB9002908BF00281CBF94
:100CE8004FF0FF314FF0FF3000F076B9ADF1080C4E
:100CF8006DE904CE00F006F8DDF804E0DDE9022332
:100D080004B070472DE9F047089E0D460446884612
:100D1800002B4DD18A42944668D9B2FA82F252B178
:100D280001FA02F3C2F1200120FA01F10CFA02FCE7
:100D380041EA030894404FEA1C41B8FBF1F71FFA57
:100D48008CFE01FB178807FB0EF0230C43EA0843CF
:100D580098420AD91CEB030307F1FF3580F01E8186
:100D6800984240F21B81023F63441B1AB3FBF1F027
:100D780001FB103300FB0EFEA4B244EA0344A6456F
:100D88000AD91CEB040400F1FF3380F00981A64561
:100D980040F20681644402380021A4EB0E0440EAC4
:100DA80007401EB10023D440C6E90043BDE8F087E0
:100DB8008B4208D9002E00F0EE800021C6E900051C
:100DC8000846BDE8F087B3FA83F100294AD1AB425F
:100DD80002D3824200F2FC80841A65EB03030120EF
:100DE8009846002EE2D0C6E90048DFE702B9FFDEE8
:100DF800B2FA82F2002A40F09180A1EB0C000121A6
:100E08004FEA1C471FFA8CFEB0FBF7F307FB1300F1
:100E1800250C45EA00450EFB03F0A84208D91CEB57
:100E2800050503F1FF3802D2A84200F2CE804346FE
:100E38002D1AB5FBF7F007FB10550EFB00FEA4B208
:100E480044EA0544A64508D91CEB040400F1FF3523
:100E580002D2A64500F2B6802846A4EB0E0440EA6A
:100E680003409EE7C1F120078B4022FA07FC4CEAB9
:100E7800030C25FA07FA4FEA1C49BAFBF9F820FADD
:100E880007F309FB18AA8D401FFA8CFE1D4300FAD0
:100E980001F308FB0EF02C0C44EA0A44A04202FAC3
:100EA80001F20BD91CEB040408F1FF3A80F08880AA
:100EB800A04240F28580A8F102086444241AB4FBD9
:100EC800F9F009FB104400FB0EFEADB245EA0444FC
:100ED800A64508D91CEB040400F1FF356CD2A645E1
:100EE8006AD90238644440EA0840A0FB0295A4EBA2
:100EF8000E04AC42C846AE4656D353D0002E69D035
:100F0800B3EB080264EB0E0422FA01F304FA07F7C4
:100F18001F43CC40C6E90074002147E70CFA02FCE5
:100F2800C2F1200125FA01F34FEA1C4720FA01F12A
:100F380095400D43B3FBF7F107FB11331FFA8CFE05
:100F4800280C40EA034001FB0EF3834204FA02F442
:100F580008D91CEB000001F1FF382FD283422DD9AC
:100F680002396044C01AB0FBF7F307FB1300ADB2B7
:100F780045EA004503FB0EF0A84208D91CEB05051D
:100F880003F1FF3816D2A84214D9023B6544281A47
:100F980043EA014138E73146304607E72F46E4E6A1
:100FA8001846F9E64B45A9D2B9EB020865EB0C0ED9
:100FB8000138A3E74346EAE7284694E74146D1E7E4
:100FC800D0467BE76444023847E7023B65442FE795
:100FD800084606E73146E9E6704700BF2DE9F043C9
:100FE80089B000240494059406940794334B9A69B5
:100FF80042F010029A619A6902F010020092009A77
:101008009A6942F020029A619A6902F020020192DC
:10101800019A9A6942F004029A619A6902F00402FC
:101028000292029A9A6942F008029A619B6903F057
:1010380008030393039BDFF8889001224FF4807123
:10104800484600F032FE1F4F01220421384600F0C6
:101058002CFE1D4E22462021304600F026FE4FF47D
:10106800807304930125059506954FF00308CDF884
:101078001C8004A9484600F0F1FC0423049305955C
:101088000695CDF81C8004A9384600F0E7FC10232B
:101098000493059406940DEB0301304600F0DEFC42
:1010A80020230493059506940223079304A9304648
:1010B80000F0D4FC09B0BDE8F08300BF0010024086
:1010C8000008014000140140000C014072B6FEE720
:1010D80000B591B02822002106A802F061FA002389
:1010E80001930293039304930593012206924FF40C
:1010F800803307930A9202220D920E934FF4E01365
:101108000F9306A800F0EEFD80B90F23019302218A
:101118000291002303934FF480620492059301A87F
:1011280001F012F820B911B05DF804FBFFF7CEFF0B
:10113800FFF7CCFF38B500F017FB482002F0ACF9F8
:10114800FFF7C6FFFFF74AFF00F028FA00F042F861
:1011580000F062F802F00AF901F0B8FF002001F08F
:101168007DFF184B4FF478421A8002F0C9F901F05C
:101178007BFEFFF7B9F902460B46134802F062FA04
:10118800124D00224FF48071284600F08EFD104C5D
:1011980001220421204600F088FD4FF4FA7002F085
:1011A800A3F901224FF48071284600F07EFD002249
:1011B8000421204600F079FD4FF4FA7002F094F90A
:1011C800D5E700BFA40B0020609600080008014086
:1011D8000014014008B50E480E4B03604FF48273AB
:1011E800436000238360C360036143614FF400726E
:1011F80082613822C2610362436283620A23C36246
:1012080001F0FAF800B908BDFFF760FFFBE700BF7F
:10121800D40900200030014008B50E480E4B036089
:101228004FF48273436000238360C36003614361AA
:101238004FF4007282613822C261036243628362A2
:101248000A23C36201F0D8F800B908BDFFF73EFFD2
:10125800FBE700BF2C0A0020003800402DE9F043CE
:101268008BB0002306930793089309930368484AB1
:10127800934205D0474A934234D00BB0BDE8F0837F
:10128800454B9A6942F480529A619A6902F48052F5
:101298000192019A9A6942F004029A619B6903F0EB
:1012A80004030293029BA0230693022307930325BA
:1012B80009953A4C06A9204600F0D0FB4023069336
:1012C80000230793089306A9204600F0C7FB0423D0
:1012D8000693012307930893099506A9204600F071
:1012E800BDFBCAE72C4B9A6942F010029A619A69D1
:1012F80002F010020392039ADA6942F48042DA613A
:10130800DA6902F480420492049A9A6942F0080267
:101318009A619B6903F008030593059B4FF42043EA
:10132800069302230793032709971D4D06A928460C
:1013380000F094FB4FF4804306930024079408942C
:1013480006A9284600F08AFB4FF48059CDF818907A
:10135800012607960896099706A9284600F07EFBFD
:101368004FF04008CDF818800796089609970D4E5B
:1013780006A9304600F072FB22464946284600F08E
:1013880094FC22464146304600F08FFC75E700BFCA
:1013980000300140003800400010024000080140C1
:1013A800000C0140001001400B4B19680A6822F03C
:1013B80040020A6019680A6822F038021204120C06
:1013C8000A601A681168084310601A68136843F0C5
:1013D80040031360704700BFD40900200B4B196805
:1013E8000A6822F040020A6019680A6822F0380286
:1013F8001204120C0A601A681168084310601A680F
:10140800136843F040031360704700BF2C0A0020A4
:1014180000B587B08DF80F004FF47A73009301235D
:101428000DF117020DF10F01034801F01CF99DF8A9
:10143800170007B05DF804FBD409002082B00E4BFA
:101448009A6942F001029A619A6902F001020092D7
:10145800009ADA6942F08052DA61DB6903F080535E
:101468000193019B054A536823F0E06343F000733E
:10147800536002B0704700BF0010024000000140F6
:10148800FEE7FEE7FEE7FEE7FEE7704770477047B6
:1014980008B500F07BF908BD08B5084801F06AFBFB
:1014A800064801F0ABFC2028FAD101220449034880
:1014B80001F0C5FC0028F8D108BD00BF580B00207A
:1014C800540B00200120704708B502F03FF816239E
:1014D80003604FF0FF3008BD08B54FF0FF31FFF74C
:1014E800F3FFFEE770B50C461646002506E0AFF39D
:1014F8000080214601F8010B01350C46B542F6DBA8
:10150800304670BD70B50C461646002504E014F848
:10151800010B00F037F80135B542F8DB304670BDF5
:101528004FF0FF3070474FF400534B600020704776
:10153800012070470020704710B503460C4A0D493A
:101548000D48006840B10C4800680344521A9342A1
:1015580006D8094A136010BD0748084C0460F2E732
:1015680001F0F4FF0C2303604FF0FF30F3E700BFF6
:1015780000C0002000040000840A0020180C00208D
:1015880070470000044B1B6813F0400FFAD0C2B23A
:10159800014B5A60704700BF0038014008B50A483F
:1015A8000A4B03604FF4E133436000238360C36058
:1015B80003610C2242618361C36101F01FFA00B923
:1015C80008BDFFF783FDFBE7580B002000380140FA
:1015D80030B587B000230293039304930593026800
:1015E8001B4B9A4201D007B030BD03F558439A69A6
:1015F80042F480429A619A6902F480420092009A09
:101608009A6942F004029A619B6903F0040301930A
:10161800019B4FF400730293022303930323059362
:101628000C4D02A9284600F019FA4FF48063029382
:1016380000240394049402A9284600F00FFA2246D5
:101648002146252000F0C6F8252000F0FBF8CAE75F
:1016580000380140000801400268194B9A4200D046
:101668007047184A1388B2F90020002AF8DB13F4EF
:10167800804F0ED0144A12780A2A03D0114B002248
:101688001A8070476FEA43436FEA53430D4A138049
:1016980070470D4A12780D2A0DD0C3F30D010B487F
:1016A800425401339BB2074A1380C72BD8D913463B
:1016B80000221A80D4E743F48043024A138070471B
:1016C80000380140500B0020540B0020880A0020ED
:1016D800FFF756FF0B480C490C4A002302E0D45888
:1016E800C4500433C4188C42F9D3094A094C002366
:1016F80001E013600432A242FBD301F02DFFFFF793
:1017080019FD704700000020B8090020C49A00089D
:10171800B8090020180C0020FEE7000010B50446A8
:101728000E4B18784FF47A73B3FBF0F30C4A106839
:10173800B0FBF3F000F094F868B90F2C01D9012040
:101748000AE0002221464FF0FF3000F043F8054B35
:101758001C60002000E0012010BD00BF0400002034
:10176800000000200800002008B5074A136843F06D
:1017780010031360032000F01BF80F20FFF7CEFFC3
:10178800FFF75CFE002008BD00200240034A1168F4
:10179800034B1B780B441360704700BFA00B00205D
:1017A80004000020014B1868704700BFA00B002000
:1017B800074AD36823F4E0631B041B0C000200F4FF
:1017C800E060034343F0BF6343F40033D3607047E2
:1017D80000ED00E000B5194BDB68C3F30223C3F149
:1017E800070CBCF1040F28BF4FF0040C03F1040EE2
:1017F800BEF1060F18D9033B4FF0FF3E0EFA0CFC62
:1018080021EA0C0199400EFA03F322EA0303194373
:1018180000280BDB0901C9B200F1604000F5614006
:1018280080F800135DF804FB0023E5E700F00F00E3
:101838000901C9B2024B1954F4E700BF00ED00E0FA
:1018480014ED00E0002807DB00F01F024009012327
:101858009340024A42F82030704700BF00E100E0A0
:101868000138B0F1807F0BD24FF0E0235861054A70
:10187800F02182F823100020986107221A6170472E
:101888000120704700ED00E0042806D04FF0E02268
:10189800136923F00403136170474FF0E0221369C2
:1018A80043F004031361704790F82130DBB2022B38
:1018B80006D004238363002380F82030012070477A
:1018C8000268136823F00E0313600268136823F09C
:1018D80001031360036CC16B012202FA03F34B602E
:1018E80080F82120002380F8203018467047000037
:1018F80008B590F82130DBB2022B03D004238363B0
:10190800012008BD0268136823F00E031360026803
:10191800136823F00103136003684C4A93424ED9BD
:10192800783A934224D01432934230D014329342FE
:101938002FD0143293422FD0143293422FD0143226
:1019480093422FD0143293422FD002F56272934201
:101958002ED0143293422DD0143293422CD014320C
:10196800934202D04FF4803203E04FF4805200E0FB
:101978000122374B5A60012380F82130002380F878
:101988002030436B002B5ED098470020B9E7102227
:10199800EFE74FF48072ECE74FF48052E9E74FF439
:1019A8008032E6E74FF48012E3E74FF08072E0E719
:1019B8000122DEE71022DCE74FF48072D9E7254ADE
:1019C800934224D01432934225D01432934224D027
:1019D8001432934224D01432934224D014329342C6
:1019E80024D01432934224D002F56272934223D059
:1019F8001432934222D01432934221D014329342AB
:101A080002D04FF4803203E04FF4805200E001220C
:101A1800114B5A60AFE71022FAE74FF48072F7E7EC
:101A28004FF48052F4E74FF48032F1E74FF480121C
:101A3800EEE74FF08072EBE70122E9E71022E7E7D3
:101A48004FF48072E4E700205BE700BF80000240AB
:101A580000040240080002400000024070B582B055
:101A68000024A446B0E0874DAA4210D007D9864D7D
:101A7800AA420CD005F58035AA4208D013E0A5F596
:101A88008015AA4203D005F57025AA4207D18A68B5
:101A9800002A62D0012A5BD04361082403E0A5F53F
:101AA8008015AA42F3D0BEF1FF0F58D80646BEF102
:101AB800FF0F56D84FEA8C0233680F25954023EA6A
:101AC800050304FA02F2134333604B6813F0805F96
:101AD80078D06E4B9A6942F001029A619B6903F0D3
:101AE80001030193019B4FEA9C02951C684B53F834
:101AF80025600CF003039D000F23AB4026EA030684
:101B0800644B984233D003F58063984200F0988084
:101B180003F58063984200F0958003F5806398424E
:101B280000F0928003F58063984200F08F8003F5FF
:101B38008063984219D006231AE0CC68B3E7CC68D2
:101B48000434B0E7CC680834ADE7CC680C34AAE7B5
:101B580003610824A7E70024A5E70424A3E7061DDA
:101B6800A5E7ACF108029200A6E7052300E00023F0
:101B7800AB4033430232464D45F822304B6813F4EC
:101B8800801F65D0444A936843EA0E0393604B680C
:101B980013F4001F62D0404AD36843EA0E03D360AF
:101BA8004B6813F4003F5FD03B4A536843EA0E0387
:101BB80053604B6813F4803F5CD0374A136843EA9C
:101BC8000E0313600CF1010C0A6832FA0CF357D0BB
:101BD800012303FA0CF302EA030E33EA0202F1D1FD
:101BE8004A68122A3FF63FAF122A3FF65CAF01A5BA
:101BF80055F822F0971A0008431B00084D1B0008EF
:101C08005F1B0008AF1A0008AF1A0008AF1A0008D7
:101C1800AF1A0008AF1A0008AF1A0008AF1A000878
:101C2800AF1A0008AF1A0008AF1A0008AF1A000868
:101C3800AF1A0008AF1A0008471B0008531B00081A
:101C4800012395E7022393E7032391E704238FE712
:101C5800114A936823EA0E03936098E70E4AD36803
:101C680023EA0E03D3609BE70B4A536823EA0E036B
:101C780053609EE7084A136823EA0E031360A1E73E
:101C880002B070BD000022100000311000100240A8
:101C98000000014000080140000401408368194227
:101CA80001D001207047002070470AB101617047D8
:101CB800090401617047000082B0084B1B68084A9C
:101CC800A2FB03235B0A00FB03F3019300BF019B04
:101CD8005A1E0192002BF9D102B070470000002073
:101CE800D34D6210002800F0F18170B582B004462F
:101CF800036813F0010F2CD0994B5B6803F00C03B9
:101D0800042B1DD0964B5B6803F00C03082B12D0F4
:101D18006368B3F5803F41D0002B55D103F1804370
:101D280003F504331A6822F480321A601A6822F420
:101D380080221A6037E08A4B5B6813F4803FE7D053
:101D4800874B1B6813F4003F03D06368002B00F037
:101D5800BF81236813F0020F75D0814B5B6813F0C5
:101D68000C0F5FD07E4B5B6803F00C03082B54D03C
:101D78002369002B00F08A807A4B01221A60FFF752
:101D880011FD0546764B1B6813F0020F75D1FFF75E
:101D980009FD401B0228F5D903209EE1704A13680B
:101DA80043F480331360636843B3FFF7FBFC0546D5
:101DB8006B4B1B6813F4003FCBD1FFF7F3FC401BC0
:101DC8006428F5D9032088E1B3F5A02F09D0644B26
:101DD8001A6822F480321A601A6822F480221A6083
:101DE800E1E703F18043A3F53C331A6842F480220B
:101DF8001A601A6842F480321A60D4E7FFF7D2FCFE
:101E08000546574B1B6813F4003FA2D0FFF7CAFCE6
:101E1800401B6428F5D903205FE1514B5B6813F43C
:101E2800803FA5D14E4B1B6813F0020F03D02369E6
:101E3800012B40F04F814A4A136823F0F803616987
:101E480043EAC1031360236813F0080F33D0A36972
:101E5800002B5CD0434B0122C3F88024FFF7A2FC7F
:101E680005463F4B5B6A13F0020F21D1FFF79AFC3E
:101E7800401B0228F5D903202FE1394A136823F0C3
:101E8800F803616943EAC1031360DCE7354B0022BC
:101E98001A60FFF787FC0546314B1B6813F0020FE9
:101EA800D1D0FFF77FFC401B0228F5D9032014E1AD
:101EB8000120FFF701FF236813F0040F00F096805C
:101EC800274BDB6913F0805F34D1254BDA6942F088
:101ED8008052DA61DB6903F080530193019B01258D
:101EE800214B1B6813F4807F26D0E368012B3DD07B
:101EF800002B53D103F1804303F504331A6A22F00F
:101F080001021A621A6A22F004021A6233E0154BBF
:101F18000022C3F88024FFF745FC0546104B5B6A96
:101F280013F0020FC7D0FFF73DFC401B0228F5D97C
:101F38000320D2E00025D3E70B4A136843F48073EB
:101F48001360FFF72FFC0646074B1B6813F4807FCE
:101F5800CBD1FFF727FC801B6428F5D90320BCE010
:101F68000010024000004242007000405F4A136ABD
:101F780043F001031362E36833B3FFF713FC06462B
:101F88005A4B1B6A13F0020F2FD1FFF70BFC801B73
:101F980041F288339842F3D903209EE0052B09D0FB
:101FA800524B1A6A22F001021A621A6A22F00402DB
:101FB8001A62E0E74D4B1A6A42F004021A621A6A82
:101FC80042F001021A62D6E7FFF7ECFB0646474BE0
:101FD8001B6A13F0020F08D0FFF7E4FB801B41F2E5
:101FE80088339842F3D9032077E0E5B9E369002BF9
:101FF80072D03E4A526802F00C02082A56D0022BD0
:1020080017D03B4B00221A66FFF7CCFB0446374B30
:102018001B6813F0007F47D0FFF7C4FB001B0228A2
:10202800F5D9032059E0314AD36923F08053D361AD
:10203800DCE72F4B00221A66FFF7B4FB05462B4B53
:102048001B6813F0007F06D0FFF7ACFB401B02288B
:10205800F5D9032041E0236AB3F5803F1AD023491C
:102068004B6823F47413226A606A024313434B607B
:102078001F4B01221A66FFF795FB04461B4B1B6892
:1020880013F0007F0ED1FFF78DFB001B0228F5D956
:10209800032022E0154A536823F40033A1680B4358
:1020A8005360DCE7002018E0002016E0012B16D072
:1020B8000E4B5B6803F48031226A914211D103F41C
:1020C8007013626A93420ED1002006E00120704727
:1020D800012002E0012000E0002002B070BD0120D4
:1020E800FBE70120F9E70120F7E700BF00100240F5
:1020F800000042420F4B5B6803F00C02082A01D033
:102108000D487047C3F383420C49885C13F4803F41
:102118000BD0084B5B68C3F34043094AD35C064ABB
:1021280002FB00F0B0FBF3F07047064B03FB00F036
:10213800704700BF0010024000127A00889600081D
:102148009896000800093D00002800F0A08070B5AE
:102158000D460446524B1B6803F007038B420BD213
:102168004F4A136823F007030B431360136803F007
:1021780007038B4240F08D80236813F0020F17D0BD
:1021880013F0040F04D0474A536843F4E0635360E4
:10219800236813F0080F04D0424A536843F460538D
:1021A8005360404A536823F0F003A1680B4353601F
:1021B800236813F0010F31D06368012B20D0022B64
:1021C80025D0384A126812F0020F64D035494A689F
:1021D80022F0030213434B60FFF7E4FA0646314B43
:1021E8005B6803F00C036268B3EB820F16D0FFF74D
:1021F800D9FA801B41F288339842F0D9032045E090
:10220800284A126812F4003FE0D101203EE0254A36
:10221800126812F0007FD9D1012037E0204B1B68EB
:1022280003F00703AB420AD91D4A136823F00703DA
:102238002B431360136803F00703AB422DD12368C7
:1022480013F0040F06D0174A536823F4E063E168DB
:102258000B435360236813F0080F07D0114A5368E3
:1022680023F46053216943EAC1035360FFF742FF37
:102278000C4B5B68C3F303130B4AD35CD8400B4B7E
:1022880018600B4B1868FFF749FA002070BD012051
:1022980070470120FAE70120F8E70120F6E700BFC0
:1022A8000020024000100240709600080000002044
:1022B80008000020014B1868704700BF000000208C
:1022C80008B5FFF7F7FF044B5B68C3F30223034A23
:1022D800D35CD84008BD00BF0010024080960008BB
:1022E80008B5FFF7E7FF044B5B68C3F3C223034A53
:1022F800D35CD84008BD00BF00100240809600089B
:102308002DE9F04782B00546884617461E46FFF776
:1023180049FA0A9B1B1A03EB0609FFF743FA8246A0
:102328002B4B1B68C3F3CB3309FB03F301932B68D7
:102338009C6838EA04030CBF4FF0010C4FF0000C06
:10234800BC4540D0B6F1FF3FF1D0FFF72BFAA0EB28
:102358000A0048450AD2B9F1000F07D0019A02B124
:102368004A46019B013B01939146E0E72A6853687E
:1023780023F0E00353606B68B3F5827F0BD0AB6A40
:10238800B3F5005F14D0012385F85130002385F898
:102398005030032018E0AB68B3F5004F02D0B3F516
:1023A800806FECD12A68136823F040031360E6E7D6
:1023B8002A68136823F4005313602A68136843F4E7
:1023C80000531360DFE7002002B0BDE8F08700BFCC
:1023D8000000002010B582B004460B46009200228F
:1023E8008021FFF78DFF08B902B010BD636D43F07F
:1023F800200363650320F7E7002856D010B504468C
:10240800436A33B94368B3F5827F05D00023C361BB
:1024180002E00023036143610023A36294F8513072
:10242800002B3CD0022384F851302268136823F033
:1024380040031360636803F48273A26802F40442E1
:102448001343E26802F400621343226902F00202B5
:102458001343626902F001021343A26902F4007295
:102468001343E26902F038021343226A02F0800241
:102478001343A26A02F40052216813430B60638B72
:10248800226803F0040353602268D36923F40063CD
:10249800D36100206065012384F8513010BD84F8B1
:1024A80050302046FEF7DAFEBCE7012070472DE9E0
:1024B800F04383B01D4690F85030012B00F0D180D6
:1024C800044688469146012380F85030FFF76AF9A0
:1024D800074694F85160F6B2012E40F0BA80B8F180
:1024E800000F00F0B780B9F1000F00F0B3800323AC
:1024F80084F8513000236365C4F83080A4F8349020
:10250800A4F83690A363A387E38763642364A3686E
:10251800B3F5004F1ED023681A6812F0400F03D19C
:102528001A6842F040021A60E368B3F5006F1CD0E5
:10253800636813B1B9F1010F55D1226B2368127882
:102548001A73236B01332363E38E9BB2013B9BB267
:10255800E38648E02268136823F04003136022688A
:10256800136843F480431360D5E7636813B1B9F186
:10257800010F15D1226B23681288DA60236B0233AE
:102588002363E38E9BB2013B9BB2E38608E0FFF72F
:1025980009F9C01BA84202D3B5F1FF3F15D1A5B177
:1025A800E38E9BB2002B3CD023689A6812F0020F8E
:1025B800EDD0226B1288DA60236B02332363E38E3B
:1025C8009BB2013B9BB2E386EAE7012384F85130D2
:1025D80003263FE0FFF7E6F8C01BA84202D3B5F197
:1025E800FF3F19D1C5B1E38E9BB2D3B123689A6876
:1025F80012F0020FEED0226B12781A73236B01339C
:102608002363B4F836C01FFA8CFC0CF1FF3C1FFAA8
:102618008CFCA4F836C0E6E7012384F85130032681
:1026280018E03A4629462046FFF7D4FE08B1202391
:102638006365A36833B901932368DA6801929B68DC
:102648000193019B636D2BB9012384F85130002657
:1026580000E00226002384F85030304603B0BDE87D
:10266800F0830226F9E72DE9F04383B01F460A9D5F
:1026780090F85030012B00F01681044688469146A8
:10268800012380F85030FFF78DF8064694F8513052
:10269800DBB26268012B0AD0B2F5827F40F0F0808D
:1026A800A268002A40F0F380042B40F0F280B8F1D1
:1026B800000F00F0F080B9F1000F00F0EE80002F5D
:1026C80000F0ED8094F85130DBB2042B02D00523E2
:1026D80084F8513000236365C4F83890E787A787EA
:1026E800C4F83080E786A7862364636423681A6881
:1026F80012F0400F03D11A6842F040021A60E368F2
:10270800B3F5006F11D063680BB1012F0BD1226BA9
:10271800236812781A73236B01332363E38E9BB209
:10272800013B9BB2E38601276EE063680BB1012F82
:102738000BD1226B23681288DA60236B0233236380
:10274800E38E9BB2013B9BB2E38601271BE0236823
:102758009A6812F0010F0ED0E28F92B25AB1DA687D
:10276800A36B1A80A36B0233A363E38F9BB2013B75
:102778009BB2E3870127FFF715F8801BA84202D315
:10278800B5F1FF3F1ED1E38E9BB21BB9E38F9BB21D
:10279800002B5CD023689A6812F0020FD7D0E28E23
:1027A80092B2002AD3D0002FD1D0226B1288DA60DF
:1027B800236B02332363E38E9BB2013B9BB2E38618
:1027C8000027C4E7012384F85130032059E0236827
:1027D8009A6812F0010F0ED0E28F92B25AB1DA68FD
:1027E800A36B1A70A36B0133A363E38F9BB2013B06
:1027F8009BB2E3870127FEF7D5FF831BAB4202D3C9
:10280800B5F1FF3F1ED1EDB1E38E9BB213B9E38F53
:102818009BB2E3B123689A6812F0020FD7D0E28E18
:1028280092B2002AD3D0002FD1D0226B12781A731B
:10283800236B01332363E38E9BB2013B9BB2E38698
:102848000027C4E7012384F85130032019E03246F9
:1028580029462046FFF7BEFD70B9A36833B9019336
:102868002368DA6801929B680193019B636DC3B981
:10287800012384F8513004E020236365012000E03F
:102888000220002384F8503003B0BDE8F083022012
:10289800F7E70220F5E70120F3E70120F1E701203F
:1028A800EFE70120EDE70220EEE7026802F10C03F2
:1028B80053E8003F23F490730C3242E800310029BA
:1028C800F3D1026802F1140353E8003F23F0010337
:1028D800143242E800310029F3D1036B012B05D0F3
:1028E800202380F84230002303637047026802F116
:1028F8000C0353E8003F23F010030C3242E8003188
:102908000029F3D1ECE790F84130DBB2212B01D05C
:10291800022070478368B3F5805F17D0036A5A1C9A
:1029280002621A7803685A60C38C9BB2013B9BB25F
:10293800C3844BB90268D36823F08003D36002686C
:10294800D36843F04003D360002070470369002B2D
:10295800E4D1036A1B880268C3F308035360036A5F
:1029680002330362E0E7000010B504460268136909
:1029780023F44053C1680B4313618368026913430E
:1029880042691A430168CB6823F4B05323F00C035F
:102998001343CB600268536923F4407381690B4386
:1029A80053610268134B9A4220D0FFF789FC024614
:1029B80002EB820202EB820263689B00B2FBF3F235
:1029C8000D48A0FB02314909642303FB11231B01B5
:1029D8003233A0FB03235B0903F0F00202EB011280
:1029E80003F00F03216813448B6010BDFFF778FCD8
:1029F8000246DDE7003801401F85EB5160B310B592
:102A0800044690F8413013B3242384F841302268F7
:102A1800D36823F40053D3602046FFF7A5FF22684C
:102A2800136923F4904313612268536923F02A033E
:102A380053612268D36843F40053D3600020606474
:102A4800202384F8413084F84230606310BD80F858
:102A58004030FEF7BDFDD7E701207047704708B545
:102A68000168CA6822F04002CA60202280F841202A
:102A7800FFF7F4FF002008BD704708B5406A00233F
:102A8800C385C384FFF7F8FF08BD704790F842304C
:102A9800DBB2222B69D18368B3F5805F4FD0826A9D
:102AA800B3F5805F04D0002B56D10369002B53D1B6
:102AB80003685B681370836A01338362C38D9BB2BA
:102AC800013B9BB2C385002B51D100B583B002688E
:102AD800D36823F02003D3600268D36823F480739B
:102AE800D3600268536923F001035361202380F8FF
:102AF800423000234363036B012B33D1002303636C
:102B0800026802F10C0353E8003F23F010030C3273
:102B180042E800310029F3D103681A6812F0100F57
:102B280006D0002201921A6801925B680193019B0A
:102B3800818DFFF7AAFF002003B05DF804FB02694E
:102B4800002AACD1826A03685B68C3F30803138068
:102B5800836A02338362B1E703685B6803F07F032B
:102B68001370A8E7FEF778FDE5E70220704700201C
:102B78007047000030B583B0044602681368D06817
:102B8800516913F00F0505D113F0200F02D010F092
:102B9800200F19D12DB111F0010119D110F4907F36
:102BA80016D1216B01297DD013F0800F03D010F0CE
:102BB800800F40F0188113F0400F03D010F0400F41
:102BC80040F0158103B030BD2046FFF75FFFF9E7FD
:102BD80013F0010F06D010F4807F03D0626C42F02E
:102BE8000102626413F0040F04D019B1626C42F060
:102BF8000202626413F0020F04D019B1626C42F051
:102C08000402626413F0080F07D010F0200F00D1FF
:102C180019B1626C42F008026264626C002AD1D079
:102C280013F0200F02D010F0200F29D123685B6920
:102C380003F04003626C12F0080F00D163B3204622
:102C4800FFF733FE23685B6913F0400F20D022683A
:102C580002F1140353E8003F23F04003143242E822
:102C680000310029F3D1E36B73B1634A5A63E06B17
:102C7800FEF73EFE0028A5D0E06B436B9847A1E71E
:102C88002046FFF703FFD1E72046FFF7F5FE99E757
:102C98002046FFF7F1FE95E72046FFF7EDFE0023FB
:102CA80063648FE713F0100F3FF47EAF10F0100F3E
:102CB8003FF47AAF0023019313680193536801939B
:102CC800019B536913F0400F51D0E26B13685B68A6
:102CD8009BB2002B3FF476AFA18D99427FF672AF7D
:102CE800E3859369202B37D0226802F10C0353E85F
:102CF800003F23F480730C3242E800310029F3D1FD
:102D0800226802F1140353E8003F23F00103143250
:102D180042E800310029F3D1226802F1140353E894
:102D2800003F23F04003143242E800310029F3D178
:102D3800202384F8423000232363226802F10C0325
:102D480053E8003F23F010030C3242E80031002919
:102D5800F3D1E06BFEF7A8FD02236363A18DE38D39
:102D68009BB2C91A89B22046FFF78FFE2AE7A18DC8
:102D7800E38D9BB2C91A89B2E38D9BB2002B3FF455
:102D880021AF00293FF41EAF226802F10C0353E87B
:102D9800003F23F490730C3242E800300028F3D14E
:102DA800226802F1140353E8003F23F001031432B0
:102DB80042E800300028F3D1202384F84230002371
:102DC8002363226802F10C0353E8003F23F0100349
:102DD8000C3242E800300028F3D102236363204616
:102DE800FFF753FEEEE62046FFF78DFDEAE62046A4
:102DF800FFF735FEE6E600BF832A000890F8413069
:102E080090F842001843704781628285C28500238A
:102E18004364222380F84230036923B10268D368EF
:102E280043F48073D3600268536943F0010353612C
:102E38000268D36843F02003D3600020704708B5C8
:102E480090F84230DBB2202B08D149B10AB90120F1
:102E580008BD00230363FFF7D7FFF9E70220F7E770
:102E68000120F5E70000000010B5214C01222021C7
:102E78002046FEF71AFF0F2000F018FB0022202141
:102E88002046FEF712FF002410211948FEF706FF1E
:102E980040B90134012000F009FB164B9C42F3D9DC
:102EA80015481EE0002410211148FEF7F7FE0128FE
:102EB80009D10134012000F0F9FA0E4B9C42F2D9F5
:102EC8004FF040400DE06000FDF7ECFA06A3D3E9AF
:102ED8000023FDF727FC0022084BFDF723FCFDF734
:102EE8005BFB10BDAFF300804C37894160E5A03F24
:102EF800000C0140A0860100000080BF0000E03FF8
:102F080030B583B08DF80700084C4FF480556561E3
:102F1800074B40225A610A2301220DF10701054897
:102F2800FFF7C5FA256103B030BD00BF000C0140B2
:102F3800001001402C0A002030B583B08DF807003E
:102F4800084C4FF480556561074B40221A610A23EB
:102F580001220DF107010548FFF7A9FA256103B021
:102F680030BD00BF000C0140001001402C0A0020B9
:102F780070B582B00E4C4FF4805565610D4B402200
:102F88001A61030A8DF807308DF806000A4E0A23E5
:102F980001220DF107013046FFF789FA0A230122C1
:102FA8000DF106013046FFF782FA256102B070BDC7
:102FB800000C0140001001402C0A002010B50C46FE
:102FC800C0B2FFF79DFFE0B2FFF7B6FF10BD0000EB
:102FD80008B5024B187AFFF793FF08BDA80B00202D
:102FE80008B5642000F080FA322000F07DFA08BDB0
:102FF8002DE9F04107460D4616461C46DFF8588075
:1030080098F80A00FFF77CFF380AFFF795FFF8B237
:103018000230C0B2FFF790FF300AFFF78DFFF0B221
:103028000230C0B2FFF788FF98F80C00FFF768FF7E
:10303800280AFFF781FFE8B20330C0B2FFF77CFF30
:10304800200AFFF779FFE0B20330C0B2FFF774FF40
:10305800FFF7BEFFBDE8F081A80B002070B505465C
:103068000F4B1A885B88013B013A9BB292B2002150
:103078000846FFF7BDFF00260AE02846FFF778FF5D
:103088000134A4B2064B5B88A342F6D80136B6B227
:10309800034B1B88B34201D90024F3E770BD00BF7E
:1030A800A80B002008B5084B2C221A8100229A711F
:1030B80080221A805A802A225A812B229A81C8217A
:1030C8003620FFF77BFF08BDA80B002008B5FFF7E7
:1030D80087FF0020FEF782F91120FFF711FF782003
:1030E80000F002FAB120FFF70BFF0120FFF724FFE1
:1030F8002C20FFF721FF2D20FFF71EFFB220FFF73E
:10310800FFFE0120FFF718FF2C20FFF715FF2D20E9
:10311800FFF712FFB320FFF7F3FE0120FFF70CFFC4
:103128002C20FFF709FF2D20FFF706FF0120FFF7EE
:1031380003FF2C20FFF700FF2D20FFF7FDFEB42032
:10314800FFF7DEFE0720FFF7F7FEC020FFF7D8FEE7
:10315800A220FFF7F1FE0220FFF7EEFE8420FFF722
:10316800EBFEC120FFF7CCFEC520FFF7E5FEC2202D
:10317800FFF7C6FE0A20FFF7DFFE0020FFF7DCFEA0
:10318800C320FFF7BDFE8A20FFF7D6FE2A20FFF7EF
:10319800D3FEC420FFF7B4FE8A20FFF7CDFEEE2051
:1031A800FFF7CAFEC520FFF7ABFE0E20FFF7C4FEEF
:1031B8003620FFF7A5FEC820FFF7BEFEE020FFF788
:1031C8009FFE0F20FFF7B8FE1A20FFF7B5FE0F206D
:1031D800FFF7B2FE1820FFF7AFFE2F20FFF7ACFE77
:1031E8002820FFF7A9FE2020FFF7A6FE2220FFF7E0
:1031F800A3FE1F20FFF7A0FE1B20FFF79DFE232044
:10320800FFF79AFE3720FFF797FE0020FFF794FE9E
:103218000720FFF791FE0220FFF78EFE1020FFF730
:103228008BFEE120FFF76CFE0F20FFF785FE1B20C9
:10323800FFF782FE0F20FFF77FFE1720FFF77CFEC7
:103248003320FFF779FE2C20FFF776FE2920FFF7C1
:1032580073FE2E20FFF770FE3020FFF76DFE302042
:10326800FFF76AFE3920FFF767FE3F20FFF764FE8D
:103278000020FFF761FE0720FFF75EFE0320FFF73F
:103288005BFE1020FFF758FE2A20FFF739FE0020CA
:10329800FFF752FE0020FFF74FFE0020FFF74CFE1D
:1032A8007F20FFF749FE2B20FFF72AFE0020FFF7BB
:1032B80043FE0020FFF740FE0020FFF73DFE9F2061
:1032C800FFF73AFEF020FFF71BFE0120FFF734FE60
:1032D800F620FFF715FE0020FFF72EFE3A20FFF735
:1032E8000FFE0520FFF728FE2920FFF709FEFFF74C
:1032F800D9FE08BD10B502280FD003280FD115201C
:10330800084C0023C4F88831FEF782F8FF20FEF746
:103318007FF80123C4F8883110BD3520F0E7052077
:10332800EEE700BF0000214238B50F4D0024C5F874
:1033380088419020FEF76CF82046FEF769F8204691
:10334800FEF766F82046FEF763F8FF20FEF760F800
:103358000402A4B2FF20FEF75BF880B20123C5F88F
:103368008831204338BD00BF0000214210B5264BEC
:103378000122C3F888210020FEF716F8FFF7D4FFD2
:10338800224B1880A0F56F401338052826D8DFE8AF
:1033980000F0031115191D211D4800F0B5F91B4C4B
:1033A80021881C4800F04EF922884EF618739A427C
:1033B80018D010BD184800F0A7F9F0E7174800F03A
:1033C800A3F9ECE7164800F09FF9E8E7154800F084
:1033D8009BF9E4E7144800F097F9E0E7134800F098
:1033E80093F9DCE70320FFF785FF10F0010FE0D128
:1033F800054C0023C4F88831B720FEF709F80123EB
:10340800C4F88831D5E700BF00002142B60B002080
:103418009C960008D8960008A4960008AC96000868
:10342800B4960008BC960008C4960008CC9600081C
:1034380070B506460C461546154B0022C3F8882180
:103448000320FDF7E5FF134B1A884EF618739A42CE
:103458000CD0C4F30740FDF7DBFFC4F30720FDF7EA
:10346800D7FFE0B2FDF7D4FF002409E0200EFDF7F6
:10347800CFFFEEE7FF20FDF7CBFF30550134A4B2B4
:10348800AC42F7D3024B0122C3F8882170BD00BFBC
:1034980000002142B60B002010B504460420FEF7B8
:1034A800F3F9014B1C6010BDB80B002010B44FF0AD
:1034B800E02254690B4B1B6800FB03FC9369002155
:1034C80004E0E01A02441144614509D21A464FF05B
:1034D800E0239B699A42FAD0F3D9D21A1144F3E750
:1034E80010BC7047B80B002038B50546002404E02E
:1034F8004FF47A70FFF7DAFF0134A542F8D838BDE7
:1035080038B5FFF733FF0024092C13D80134E4B28F
:103518000C4D14224FF480112846FFF789FF2978B3
:10352800094800F08FF82B78AA2B03D01420FFF756
:10353800DBFFE9E7034B1B78AA2B01D1002038BD3C
:103548000120FCE7BC0B0020E8960008014B186836
:10355800704700BF0C00002070B50D4E0D4D761B56
:10356800B61006D0002455F8043B01349847A6420B
:10357800F9D1094E094D06F063F8761BB61006D04E
:10358800002455F8043B01349847A642F9D170BD90
:10359800B89A0008B89A0008C09A0008B89A0008B3
:1035A800830730B548D0541E002A3FD00346CAB21C
:1035B80001E0013C3AD303F8012B9D07F9D1032C14
:1035C8002DD9CDB245EA05250F2C45EA054536D952
:1035D800A4F1100222F00F0C03F1200EE6444FEA8A
:1035E800121C03F1100242E9045542E90255103257
:1035F8007245F8D10CF1010214F00C0F03EB021222
:1036080004F00F0C13D0ACF1040323F003030433CC
:10361800134442F8045B9342FBD10CF003042CB131
:10362800CAB21C4403F8012B9C42FBD130BD64464E
:103638001346002CF4D1F9E703461446BFE71A46AF
:10364800A446E0E70FB400B5074A83B004AB10689E
:1036580053F8042B8168019300F08CF803B05DF8EF
:1036680004EB04B0704700BF0C00002030B50546DD
:1036780089B008460C4600F04FF801210223214A80
:1036880004940692AA6B04AC05900844019407912F
:10369800AC680293039022B3636E13F0010FB4F980
:1036A8000C309AB201D1980525D5910406D4626EE2
:1036B80043F4005322F40052A3816266284601AA0B
:1036C800214603F079F9636E002814BF4FF0FF35E7
:1036D8000A25DA0702D4A3899B0506D5284609B02E
:1036E80030BD284602F070FFD6E7A06D03F00AFB54
:1036F800284609B030BDA06D03F002FBB4F90C30C8
:103708009AB2D2E7E4960008024B01461868FFF720
:10371800ADBF00BF0C00002020F0030110F0030033
:10372800C0F1000051F8043B00F1040C4FEACC0C46
:103738006FF000021CBF22FA0CF213434FF0010C89
:103748004CEA0C2C4CEA0C4CA3EB0C0222EA0302C8
:1037580012EACC1204BF51F8043B0430F4D0C2F191
:10376800000102EA0102B2FA82F2C2F11F0200EB82
:10377800D20070472DE9F04FD5B01C46914607910D
:103788000546099003F0B4FA02680E9410461792A1
:10379800FFF7C2FF16901DB1AB6B002B00F01D8226
:1037A800079A536EDD0740F12D81B2F90C2091B2D2
:1037B8008F0409D4079B42F400529A8191B21A46A9
:1037C8005B6E23F4005353660E0740F1C080079BDD
:1037D8001B69002B00F0BB8001F01A030A2B00F0D4
:1037E800C48000242BAB224698464D46CDE9294497
:1037F8002893129400230024CDE914342B78CDE9C2
:103808001922CDE91B2218920B92002B00F08F8110
:10381800AA4604E01AF8013F002B00F0BB80252BD4
:10382800F8D1BAEB050640F0B9809AF80030002BC1
:1038380000F07D8100234FF0FF324FF02B09202448
:103848001F469AF8016008920AF1010A8DF8833040
:103858000A930AF1010AA6F120035A2B00F2E1802B
:10386800DFE813F00503DF00DF000003DF00DF00FF
:10387800DF00DE02DF00DF006A006E02DF005502B3
:103888007802DF0073025B005B005B005B005B009B
:103898005B005B005B005B00DF00DF00DF00DF0038
:1038A800DF00DF00DF006C01DF00EA01C4016C010A
:1038B8006C016C01DF00DF00DF00DF00D002DF00F9
:1038C800DF002302DF00DF00DF00F801DF009202E3
:1038D800DF00DF008707DF00DF00DF00DF00DF0039
:1038E800DF00DF00DF006C01DF00EA01C6016C01C8
:1038F8006C016C01B602C601BF01DF00C302DF0024
:103908005A022502A402BF01DF00F80172008407F1
:10391800DF00DF006507DF0072000022A6F1300338
:103928001AF8016B02EB820203EB4202A6F13003A4
:10393800092BF5D90A928EE70E9B53F8042B002A1F
:103948000A920E93C0F2E0819AF8006081E7079D21
:103958000998294601F0FCFC002841F04D83A9890B
:1039680001F01A030A2B7FF43CAF079AB2F90E3024
:10397800002BFFF636AF536ED80702D4890541F104
:10398800488123464A460799099855B0BDE8F04F43
:1039980001F09CBCBAEB050600F0C9802A9BC8E977
:1039A800005633442A93299B0133072B299305DCBE
:1039B80008F108080B9B33440B9336E707990998DD
:1039C80028AA04F01FFC80B90DF1AC08F2E70799AA
:1039D800099828AA04F016FC002800F099800D9B8D
:1039E8001BB11946099802F0E7FE079A536ED907EA
:1039F80040F1E88093895B0601F10A830B9855B082
:103A0800BDE8F08F079BB3F90C20900591B23FF504
:103A1800CFAE1D46986D03F073F9B5F90C2091B23D
:103A2800C6E6002E00F08380012300228DF8EC60AA
:103A380006933BAD8DF883200C930D9208920F925C
:103A48001392109217F0020302D0069902310691E0
:103A580017F0840B07D10A990698A1EB0009B9F170
:103A6800000F00F390832A9C82B10122C8F8042039
:103A7800299A013401320DF18301072A2A942992E7
:103A8800C8F8001000F3D88308F108087BB10223B6
:103A9800C8F80430299B0234013321AA072B2A9441
:103AA8002993C8F8002000F3D58308F10808BBF172
:103AB800800F00F08882089B0C9AA3EB020BBBF1E5
:103AC800000F00F3CB82FB0500F11F820C9BC8F8A6
:103AD80000501C44C8F80430299B2A940133072B52
:103AE800299300F3448308F10808780705D50A9B51
:103AF800069A9D1A002D00F3B983DDE90A23069979
:103B08008A42ACBF9B185B180B93002C7FF45FAF05
:103B1800002329930D9B1BB10D99099802F04CFEC7
:103B280055460DF1AC082B78002B7FF471AE2A9B1B
:103B3800002B41F010820023299356E70E9B073390
:103B480023F00702F2E80234CDE91434DDE9143435
:103B580024F00044994618460E9221464FF0FF3251
:103B6800AB4BFDF779F8002840F018854846214608
:103B78004FF0FF32A64BFDF751F8002840F00E85B4
:103B8800DDE9140100220023FDF73EF8002840F08B
:103B980065879DF88320002103209E4D9E4B27F0CA
:103BA80080070D910690472EC8BF1D4608910C90BE
:103BB8000F9113911091002A3FF444AF069B0133F3
:103BC80006933FE7079B9B899A053FF514AF079C2F
:103BD800A06D03F097F8A3890DE7099802F0F4FCAB
:103BE800DEE59AF8006047F0200732E647F0100754
:103BF800BA060E9B40F16E84073323F007031A467A
:103C08005B6852F8084B99460E92002BC0F26F84FD
:103C1800089B013300F0FB8254EA090327F0800B6C
:103C280040F0F682089B002B40F0F7825F460023A5
:103C380054AD08930C933DE1012000220E9B0690A1
:103C480053F8041B3BAD8DF883208DF8EC100E93D0
:103C58000C90F2E64FF000090E9C089B54F8045BA8
:103C68008DF88390002D00F0A1855A1C00F0A586E0
:103C78001A464946284603F063FB0D90002801F0D8
:103C880050810D9B9DF883205B1B0C9323EAE37303
:103C9800CDF820900E940693CDF83490CDF83C9052
:103CA800CDF84C90CDF8409085E747F0100717F015
:103CB800200900F0F2830E9B073323F00703D3F8A3
:103CC800049053F8084B0E93002327F4806B0022CE
:103CD8008DF88320089A511C00F0D48054EA090119
:103CE8002BF0800740F0CD80002A40F00486002B9E
:103CF8009DD11BF001030C9300F0308430230DF2AA
:103D08004F158DF84F31D5E00A9B5B420A939AF81C
:103D1800006047F004079CE5BD0600F1FD84FC0641
:103D280000F1EE85780600F1B286B90540F1E88524
:103D38000E9B0B9953F8042B554611700E93F2E61F
:103D48009AF800608DF8839083E59AF8006047F050
:103D580080077EE5524612F8016B2A2E01F08D820B
:103D6800A6F13003092B924698BF002201F2E580A4
:103D78001AF8016B02EB820203EB4202A6F1300350
:103D8800092BF5D9089266E547F0100B1BF02009BE
:103D980000F091830E9B073323F007031A4652F86D
:103DA800084BD3F804900E92012390E7302278262E
:103DB8000E9B8DF8842053F8044B184A0E934FF04D
:103DC8000009022347F0020B8DF8856018927EE700
:103DD8009AF80060682E03BF9AF8016047F40077EC
:103DE8000AF1010A47F0400733E59AF800606C2EA3
:103DF80003BF9AF8016047F020070AF1010A47F06B
:103E0800100726E59AF8006047F0080721E500BF8B
:103E1800FFFFEF7F0097000804970008109700083D
:103E2800099E304602F064FF436818461B93FFF76B
:103E380073FC034630461C931E4602F059FF836804
:103E48001993002E3FF480AD199B002B3FF47CADF5
:103E5800199B1B78002B3FF477AD9AF8006047F464
:103E68008067F6E49AF8006047F00107F1E49DF8EE
:103E78008330002B7FF468AD9AF800608DF883409A
:103E8800E7E4BB46012B00F0C381022B54AD1FD1E0
:103E9800189A04F00F03D35C240944EA09744FEA22
:103EA800191905F8013D54EA0903F2D15F4654ABEC
:103EB8005B1B0C93089A0C9900238A42B8BF0A46E8
:103EC8000D9306920F939DF883201393109372E637
:103ED80004F00703E40844EA49744FEAD909303387
:103EE80054EA09012A4605F8013DF1D11BF0010FFA
:103EF800DCD0302BDAD03023023A05F8013C54AB41
:103F08009B1A5F4615460C93D4E7652E40F3E9806B
:103F1800DDE9140100220023FCF76CFE002800F004
:103F2800E1810123C8F80430299BC04A01330134D8
:103F3800072B2A942993C8F8002000F3BF8408F1BE
:103F48000808229B129A934280F2DC82169B179AE9
:103F58001C44C8E90023299B2A940133072B299381
:103F680000F3178408F10808129B5D1E002D7FF7E7
:103F7800BCAD102D41F35D81DFF8B492224649466D
:103F88001026B946299B0F46DDF824B0079C05E0AA
:103F980008F10808103D102D40F39D8401331032BC
:103FA800072BC8E90076CDE92932F1DD21465846CC
:103FB80028AA04F027F900287FF411ADDDE9293299
:103FC8000DF1AC08E6E70A9B069AA3EB020BBBF1DE
:103FD800000F7FF770ADBBF1100F41F35280DFF88F
:103FE800509241462046A8464C461023299A079DE0
:103FF800DDF8249006E0ABF1100BBBF1100F01F1D6
:10400800080119DD01321030072AC1E90043CDE962
:104018002920F0DD2946484628AA04F0F3F80028AC
:104028007FF4DDACDDE92920ABF1100BBBF1100FFB
:104038004FF010032BA9E5DC4546A1468846044607
:1040480001325C44072ACDE92924C8F80090C8F851
:1040580004B000F3918308F108082CE5BBF1100FB8
:1040680040F3E384DFF8C89141462046A8464C4611
:104078001023299A079DDDF8249006E0ABF1100B78
:10408800BBF1100F01F1080119DD01321030072AC8
:10409800C1E90043CDE92920F0DD2946484628AA90
:1040A80004F0B0F800287FF49AACDDE92920ABF1E0
:1040B800100BBBF1100F4FF010032BA9E5DC4546A0
:1040C800A1468846044601325C44072ACDE92924E2
:1040D800C8F80090C8F804B000F3D28108F10808C5
:1040E800F1E4129B012B40F382810123299E0134C4
:1040F8001E44072EC8F800502A94C8F804302996A0
:1041080000F36C8308F10808169B0136179A1C44C3
:10411800072EC8E90023CDE9296400F36C8308F170
:1041280008080022DDE914010023FCF763FD0028DC
:1041380040F07A81129B0136013B01351C44072E61
:10414800C8F800502996C8F804302A9400F35F8113
:1041580008F108081A9B01361C44C8F80430072ED9
:1041680024ABCDE92964C8F800307FF7BCAC0799C7
:10417800099828AA04F046F800287FF430AC2A9C55
:104188000DF1AC08B1E4B9F1100F40F3C686DDE9D2
:1041980029214046CDE91D36B84610244F46079ED2
:1041A800A946099D04E0103F102F00F1080016DD14
:1041B8000132204B1031072AC0E90034CDE929210A
:1041C800F1DD3146284628AA04F01CF800287FF4BF
:1041D80006ACDDE92921103F102F2BA8E8DC4D465D
:1041E800DDE91D36B9464746804609EB0104013230
:1041F8001049072ACDE92924C8F80490C8F8001006
:1042080000F340839DF8832008F108082CE4BB469E
:104218000A2C79F1000380F0FB82012330345F46D9
:104228008DF84F410C930DF24F1543E64097000867
:1042380054970008449700080799099828AA1D93DD
:1042480003F0E0FF00287FF4CAAB2A9C1D9B0DF108
:10425800AC081BE40799099828AA03F0D3FF0028A3
:104268007FF4BDAB2A9C0DF1AC0820E4102D40F37F
:10427800BE861026299B099FDDF81C9004E0103D9E
:10428800102D08F1080817DD0133BA4A1034072B3E
:10429800C8E90026CDE92934F1DD4946384628AA7F
:1042A80003F0B0FF00287FF49AABDDE92934103D14
:1042B800102D0DF1AC08E7DC0133AE4A2C44072B76
:1042C800CDE92934C8F80450C8F800207FF715ACA8
:1042D8000799099828AA03F095FF00287FF47FAB77
:1042E8002A9C0AE42299002940F31081DDF84090C5
:1042F800129B9945A8BF9946B9F1000F0BDD299B80
:104308004C440133072BC8E900592A94299300F338
:10431800818508F10808109EB9F1000FA8BFA6EB27
:104328000906002E00F3F582DDF840B07905AB44AC
:1043380000F1AC84229B129A934202DBFA0740F107
:104348009283169A17991444C8E90012299A2A9454
:104358000132072A299200F3A88508F10808129A61
:10436800AE18A6EB0B06D51AAE42A8BF2E46002EF5
:104378000DDD299B34440133072BC8F800B0C8F879
:1043880004602A94299300F3FC8508F10808002E9C
:10439800A8BFAD1B002D7FF7A8AB102D40F34987B0
:1043A800DFF8D491224649461026B946299B0F4684
:1043B800DDF824B0079C05E008F10808103D102D31
:1043C80040F3898201331032072BC8E90076CDE922
:1043D8002932F1DD2146584628AA03F013FF0028A8
:1043E8007FF4FDAADDE929320DF1AC08E6E7FE0706
:1043F8003FF57BAE0123299E01341E44072EC8F8E1
:1044080000502A94C8F8043029967FF7A1AE07997E
:10441800099828AA03F0F6FE00287FF4E0AADDE94F
:1044280029640DF1AC0895E6129B5D1E002D7FF7FF
:1044380091AE102D40F31987224608974FF0100BC4
:10444800DFF83491099C079F05E008F10808103D42
:10445800102D40F3C78201361032072EC8E9009BA1
:10446800CDE92962F1DD3946204628AA03F0CAFEC3
:1044780000287FF4B4AADDE929620DF1AC08E6E76B
:104488000799099828AA03F0BDFE00287FF4A7AA77
:104498002A9C0DF1AC08FFF716BB17F0100377D173
:1044A80017F0400200F0AC820E9A994652F8044B7D
:1044B8000E92A4B208E41BF010030E9A54D11BF01C
:1044C80040014DD052F8044B99460E920123A4B2F4
:1044D800FFF7FDBB53F8044B0E93FB0653D47D0640
:1044E8004ED544F3C0394B4624B2FFF78EBB2D237B
:1044F80064428DF88330BB464FF0010369EB4909EC
:10450800FFF7E8BBF8077FF5F0AA1FE50123C8F815
:104518000430299B194A01330134072B2A94299323
:10452800C8F8002000F3688408F10808002940F062
:104538002582129A07F0010313433FF4D6AA169B6B
:104548001799E218C8E90013299B2A920133072B0F
:10455800299300F3508308F1080820E254ADA9E438
:104568001BF4007940F0A08252F8044B01230E920C
:10457800FFF7ADBB44970008549700084097000820
:10458800B80500F179824FEAE4794B46FFF73DBB65
:104598000E9B53F8044B0E93FFF796BBDDE914010D
:1045A80002460B46FCF758FB002840F0F785612EC1
:1045B80000F06C85412E00F07F82089B013300F0EB
:1045C800948526F02003472B069300F07B85DDE9D0
:1045D800141247F480730F931346002BC0F2F4852E
:1045E8000C9300238B461D930D93069B462B00F0DE
:1045F8002B84452B00F0148508990C9B019102210E
:10460800009126A9049123A9039122A95A46099841
:10461800029100F0ADFF069B0546472B40F044860B
:1046280017F0010FB9460F9F40F0F784269B5B1BDC
:104638001293069B472B00F0F182069B462B00F055
:104648004284229B1093109B069A013B412A229395
:1046580000F08A850021F2B2002B8DF89020B6BFB9
:104668002D222B22109B8DF89120B8BFC3F1010396
:10467800092B40F381850DF19F0C6246BA4F1C4609
:10468800104687FB0312D917C1EBA20101EB810287
:10469800A3EB42023032632C00F8012C0B4600F1E8
:1046A800FF32ECDC3033811EDBB28C4502F8013C72
:1046B80040F2FF850DF1920101E012F8013B9445AB
:1046C80001F8013BF9D10DF1A1030DF192021B1A7A
:1046D800134424AA9B1A1A93129B1A9A012B1A4460
:1046E8000C9240F39E850C9B169A13440C9300235E
:1046F8000C9A29F4806722EAE27247F480770F93D4
:104708000692139310931D9B002B40F0B0829DF8E6
:1047180083200893FFF74FBA0E9B0B9853F8041B9E
:10472800C2175546C1E900020E93FFF7FCB98F4B3B
:10473800189317F0200949D00E9B073323F007037D
:10474800D3F8049053F8084B0E93F80709D554EAA8
:10475800090306D030238DF8856047F002078DF8ED
:104768008430022327F4806BFFF7B1BABB46FFF70A
:104778000DBB7F4B1893DCE70799099828AA03F02B
:1047880041FD00287FF42BA92A9C0DF1AC08FFF706
:1047980092B90799099828AA03F034FD00287FF4F4
:1047A8001EA92A9C0DF1AC08FFF7DEBB062B294693
:1047B80028BF06232A4608950D9506936D4D0E943D
:1047C8000C930F9113911091FFF7F5B917F010039F
:1047D80069D00E9B53F8044B0E93B6E707990998D6
:1047E80028AA03F00FFD00287FF4F9A8DDE9296461
:1047F8000DF1AC0888E40799099828AA03F002FD8E
:1048080000287FF4ECA8DDE929640DF1AC0888E400
:1048180000230BF48062CDE90CA8069692461E464A
:10482800DDF8648054AF0CE00023204649460A2294
:10483800FCF750FA0A2C79F100031BD30446894689
:104848002F4620460A2200234946FCF743FA303215
:104858007D1E013607F8012CBAF1000FE4D098F854
:1048680000309E42E0D1FF2EDED00A2C79F1000301
:1048780080F0E080CDF864801296DDE90CA8069EF1
:10488800FFF714BB0799099828AA1D9303F0BAFCEF
:1048980000287FF4A4A89DF883202A9C1D9B0DF175
:1048A800AC08FFF7E1B817F0400200F0B4800E9AA8
:1048B800994652F8044B0E92A4B246E70799099814
:1048C80028AA03F09FFC00287FF489A82A9C0DF1F0
:1048D800AC08FFF736BB14463A464F4691460133BB
:1048E8002C44072BC8F80090C8F80450CDE92934A7
:1048F8007FF7F9A83BE4012BBB467FF4C6AA8CE4FA
:104908000E9B0B9953F8042B554611600E93FFF735
:104918000AB9102E40F3AD84DFF85C904246484651
:104928002146A846B9464FF0100B0746299B099C1B
:10493800079D04E00832103E102E40F348820133F0
:104948001031072BC2E9007BCDE92931F2DD294678
:10495800204628AA03F056FC00287FF440A8DDE989
:1049680029312BAAE7E700BF67666666109700083B
:10497800249700083897000854970008169B179842
:10498800E218C8E90003299B2A920133072B2993CF
:1049980000F3318108F108080029C0F20283129956
:1049A80001338C18072BCDE92934C8F80050C8F812
:1049B80004107FF798A8FFF7DABB2846CDF82090B7
:1049C8000E94FEF7A9FE20EAE073CDE90C099DF8E4
:1049D8008320CDF83C90CDF84C90CDF840900693CC
:1049E800FFF7E9B81446089F01362C44072ECDE995
:1049F8002964C8F80090C8F804507FF7A9AB06E509
:104A080017F400790E9B3DD053F8044B91460E9352
:104A1800E4B2FFF759B917F400790E9B40D053F868
:104A2800044B91460E93E4B28FE6299ADFF84C9234
:104A3800FFF749BB1C9B1B99ED1A1A46284603F041
:104A480071FB98F801300BB108F10108204649467E
:104A58000A2200230026FCF73DF9EFE62D228DF807
:104A68008320FFF798B8129AAE18A6EB0B06D51A52
:104A7800AE42A8BF2E468AE444F3C0194B4664B23E
:104A8800FFF7C3B853F8044B0E93FFF71DB90E9BFD
:104A98000B9953F8042B554611800E93FFF743B832
:104AA80053F8044B0E9350E652F8044B8946012301
:104AB8000E92E4B2FFF70BB930238DF884305823F7
:104AC8008DF88530089B47F00204632B00F3E382DE
:104AD80000233BAD0D9347F481730F93DDE9141266
:104AE8001346002B2746C0F240820C9300238B46C6
:104AF8001D9326F020030693612E00F01783412EA4
:104B08007FF473AD22AA58460C9903F07BFA002271
:104B18004FF07F53FBF706FE02460B46CDE9102304
:104B280000220023FCF766F808B101232293544BB6
:104B38000C93089BCDE912A6CDE91E78DDE9106734
:104B4800AB46DDF830A003F1FF39109506E00022EE
:104B5800002309F1FF39FCF74DF8E8B90022494B69
:104B680030463946FBF7DEFD0F460646FCF78AF865
:104B78000446FBF7A7FC0B46024639463046FBF7CE
:104B880053FB1AF80430B9F1FF3FD8464D460646A4
:104B98000F460BF8013BDAD13046394600223A4B32
:104BA800A946DDF848A0109DCDF84880CDE9100150
:104BB800DDF87C80139E1E9FFCF744F8002840F027
:104BC8004482DDE9100100222F4BFCF713F810B1E5
:104BD800E10700F13A824B46002B06DB3022013315
:104BE8005B440BF8012B5B45FBD1ABEB0503B946E6
:104BF80012930F9F1DE50799099828AA03F002FB55
:104C080000287EF4ECAEDDE9293222990DF1AC08DA
:104C1800C2E6906D02F076F8FEF7B3BE229BDA1C6E
:104C2800109302DB089A934204DD023E26F020032B
:104C3800069308E5109B129A9342C0F2828119F0FC
:104C4800010F00F0A882169A13440C9319F4806F90
:104C580000F09082109B6726002B00F346810C9B86
:104C680023EAE373069300230F9313934BE52D2256
:104C780000238DF883200893FEF7A0BF54970008FF
:104C880024970008000030400000E03F129B424695
:104C9800DDF84C80EB185E460893CDF830A01097ED
:104CA8002146199FDDF87090DDF824A0DDF81CB0CE
:104CB8000F9B1395B8F1000F2ED0002B6CD1013F3C
:104CC80008F1FF381B9B4944C2E90039299B2A9106
:104CD8000133072B299363DC0832089B38789B1B28
:104CE8008342A8BF0346002B1C460ADD29981944B5
:104CF80001300728C2E900632A9129905BDC3878E3
:104D08000832002CB4BF0546051B002D15DC0644EF
:104D18000F9BB8F1000FD0D1002B3DD1DDE9123542
:104D2800EB189E42B346199790460C4628BF9B46FF
:104D3800DDF830A0109FFFF7FDBA102D40F36F8209
:104D48001024299804E0103D102D02F1080216DD08
:104D58000130A84B10310728C2E90034CDE92901F8
:104D6800F1DD5946504628AA03F04CFA00287EF493
:104D780036AEDDE92901103D102D2BAAE8DC013003
:104D88009C4B29440728CDE92901556013604EDC66
:104D9800387808320644BBE70F9B013B0F9391E735
:104DA8005946504628AA03F02DFA00287EF417AE7B
:104DB8002A992BAA91E75946504628AA03F022FAC5
:104DC80000287EF40CAE38782A992BAA99E7454634
:104DD80090463A460C464F46914601333444072BD9
:104DE800CDE92934C8F80090C8F8046000F35D8163
:104DF80008F10808FFF798BA0799099828AA03F054
:104E080001FA00287EF4EBAD22992A9C0DF1AC083A
:104E1800FFF78CBB0799099828AA03F0F3F9002833
:104E28007EF4DDAD2A9C0DF1AC08FFF774BA594643
:104E3800504628AA03F0E6F900287EF4D0AD387869
:104E48002A992BAA064463E708990C9B0191032130
:104E5800009126A9049123A9039122A95A460998E9
:104E6800029100F085FB03780546302B00F0C081E5
:104E7800229B089AB94613440F9FEC185846002203
:104E880000230C99FBF7B6FE10B12346FFF7CFBB02
:104E9800269BA342BFF4CBAB30215A1C2692197033
:104EA800269B9C42F9D8FFF7C2BB0799099828AA04
:104EB80003F0A8F900287EF492AD229B2A9C0DF1FC
:104EC800AC08FFF74CBA229A002A109240F3B98135
:104ED800089909F001030B4340F040816626109BB6
:104EE8000C9319F4806F3FF4BAAE19990B78FF2B25
:104EF80000F0D6810024109A204604E001300131E8
:104F0800FF2B00F06481934280F26181D21A4B78C2
:104F1800002BF3D10B780134F2E7DDE92921FFF703
:104F280064B9089B9DF883200E9406930C9308900F
:104F38000F9013901090FEF73EBE00230893FEF7E3
:104F48008ABC129B169A9A18109B0C92002B40F35D
:104F58005D816726C5E70799099828AA03F052F9E1
:104F680000283EF4E8ADFEF740BD26F02003069386
:104F78002D22DDE914349B4604F100431D920C9365
:104F8800BAE50799099828AA03F03CF900287EF4A5
:104F980026AD229D129B2A9C0DF1AC085D1BFFF7E4
:104FA800F6B94E42103180F2818141461024A8465C
:104FB800DFF84090DDF824B0079D04E00831103E8A
:104FC800102E40F3998001331032072BC1E9009469
:104FD800CDE92932F2DD2946584628AA03F012F90C
:104FE80000287EF4FCACDDE929322BA9E7E7299BF0
:104FF800FFF762B954970008079B5B6EDD0707D47B
:10500800079B9B899C0503D4079B986D01F07AFE4A
:105018004FF0FF330B93FEF7F1BC089BEC182DE71C
:105028000221009108995A464C1C26A9049123A9EB
:10503800039122A90C9B09980194029100F098FA17
:105048000546B9462C440F9F18E7129B26930C9BE4
:105058001BF8012CD97B5B468A4209D1302003F822
:10506800010C269B5A1E269213F8012C9142F6D069
:10507800392A0BBF0C9A0132927AD2B203F8012C6A
:10508800B3E5299ADFF83492FEF7DABF30238DF8BA
:105098008430782314E50998591C01F0A5FE0546CB
:1050A800002800F0F6800D9015E50799099828AAC0
:1050B80003F0A8F800287EF492AC2A9C0DF1AC0805
:1050C800FFF732B9089B002B08BF0123089347F468
:1050D80080730F93159B002BC0F2A980DDF850B0A8
:1050E8001D900C930D90FFF787BA0623089326F0BE
:1050F80020030693FFF76BBA4546884601333244CE
:10510800072BCDE92932C8F80090C8F804607FF76A
:1051180022AA0799099828AA03F074F800287EF4AF
:105128005EACDDE929320DF1AC0838E422AA584614
:105138000C9902F067FF00224FF07F53FBF7F2FA59
:1051480002460B46CDE9102300220023FBF752FD4F
:1051580008B1012322935A4B0C93EAE4169B662666
:10516800D31819440C91BCE606F10F020121D2B202
:10517800FFF772BA672672E500295FD130228DF8F1
:1051880092200DF19302303302F8013B24ABD31A7D
:105198001A93FFF7A1BA109B0C9357E5159B0320B0
:1051A800002BB8BF2D224FF00003A8BF9DF8832025
:1051B80019460D93434D444BB8BF8DF8832027F013
:1051C80080070690FEF7EFBC00230D93D0E61991F7
:1051D800109213900F940F9A139B1C9913440C9AD6
:1051E80001FB03230C9323EAE3730693FFF78BBABF
:1051F8005846002200230C99FBF7FCFC00287FF49A
:1052080037AE089BC3F10103229332E6C3F10103D1
:105218001A4422EAE27367260C92069323E529983A
:10522800ADE519F0010F3FF462AAFFF75CBA0D90E3
:105238009EE6299BDFF88490FFF751BB0DF192029F
:10524800A1E7089A09F0010959EA020304D10123E8
:10525800662606930C9306E5169B662601331A44C8
:1052680022EAE2730C920693FDE4DFF85090FFF710
:10527800BBBB299BDFF84490AFE50E9B9AF8016011
:10528800924653F8042B0E9342EAE2730893FEF712
:10529800E0BA079A938943F040039381FEF7A5BBD0
:1052A80000230F93139396E7089CCAE6DFF80C9047
:1052B80024E702231A93FFF70FBA00BF5497000898
:1052C80010970008089700080C970008F0B54FF4ED
:1052D800806C1546002406461F46ADF26C4D1AAB8D
:1052E800009304938B8916A823F00203ADF80C30C1
:1052F8004B6E06941993CB890C46ADF80E30CB69EA
:10530800CDF808C007934B6ACDF814C0099301F093
:10531800F3FC2A463B4669463046FEF72BFA051E43
:1053280007DB6946304601F01BF9002818BF4FF02B
:10533800FF35BDF80C305B0603D5A38943F0400365
:10534800A381169801F0DAFC28460DF26C4DF0BDE9
:1053580038B5334B05461B680C460BB19A6B12B334
:10536800B4F90C3018079AB225D5216900292DD037
:1053780012F0010007D000256069A5604042A061D5
:1053880039B1002038BD950758BF6069A060002971
:10539800F7D1120658BF0846F4D543F040034FF042
:1053A800FF30A38138BD184601F00EF9B4F90C306E
:1053B80018079AB2D9D4D1062AD5520714D421692C
:1053C80043F00803A3819AB20029D1D102F42070D6
:1053D800B0F5007FCCD02146284601F095FCB4F901
:1053E8000C3021699AB2C3E7216B51B104F1400234
:1053F800914204D0284601F0DFF9B4F90C300022BC
:1054080022630022216923F02403C4E90012D7E7AC
:10541800092243F040032A604FF0FF30A38138BDD2
:105428000C000020024B13B1024800F005B8704789
:1054380000000000F5660008002301461A461846D9
:1054480003F00EBE2DE9F04F03690C6985B0A34245
:10545800C0F28980013C01F11405A30000F1140891
:10546800019355F8243058F8242001338A469A428B
:1054780008EB84018146B2FBF3F605EB8407029141
:105488003AD30021AE4640460A46A34603955EF845
:10549800045B0468ABB206FB03132D0C190C06FB66
:1054A80005119BB2D21A1FFA84FC94448AB2C2EB4B
:1054B800144202EB2C421FFA8CFC4CEA024377455B
:1054C80040F8043B4FEA11414FEA2242DFD2019BE8
:1054D8005C4658F80330039D73B9029B043B98451A
:1054E80004D307E0984504F1FF3403D253F80429A4
:1054F800002AF7D0C9F810405146484602F06CFA25
:1055080000282CDB40460023013655F8041BD0F850
:1055180000C08AB29A1A1FFA8CFE0B0C7244C3EBB5
:105528001C4303EB224392B242EA0342AF4240F8E3
:10553800042B4FEA2343E8D258F8242008EB8403CD
:105548006AB9043B984504D307E0984504F1FF3451
:1055580003D253F80429002AF7D0C9F8104030467E
:1055680005B0BDE8F08F002005B0BDE8F08F00BFA2
:105578002DE9F04F90469946016C99B00446CDE963
:105588000489259D41B10123426C93408B604A6098
:1055980001F0CCFF00232364B9F1000AB4BF012352
:1055A80000232B60764BBCBF2AF0004ACDF814A02C
:1055B80033EA0A0300F0AA80DDE9042310461946FD
:1055C80000220023CDE90A01FBF714FB074670B15E
:1055D8000123249A1360269B002B00F0E682694879
:1055E8001860431E0393039819B0BDE8F08F16ABFB
:1055F800019317AB00932046DDE90A2302F0B2FAC3
:105608005FEA1A56054640F09780DDE916763E4473
:1056180006F23240202840F3B783C0F140000AFA6E
:1056280000FA06F2124028FA00F04AEA0000FAF7F7
:1056380039FF0123013E0F93A1F1F8710022524B6B
:10564800FAF7F2FD48A3D3E90023FBF76BF848A368
:10565800D3E90023FAF7EAFD804630468946FAF78F
:1056680031FF45A3D3E90023FBF75CF802460B465C
:1056780040464946FAF7DAFD80468946FBF702FBC1
:1056880000228346002340464946FBF7BDFA00281E
:1056980040F07E82BBF1160F00F26D82DDE90A014F
:1056A8003A4B03EBCB03D3E90023FBF7ADFA002811
:1056B80072D00023BE1B0E93731E0BF1FF3B0693A3
:1056C80000F1608200230993BBF1000F6BDA099B9C
:1056D800CDF81CB0A3EB0B030993CBF100030D939A
:1056E800229B4FF0000B092B66D8052B40F34A8309
:1056F8000026043B2293229B023B032B00F26C867C
:10570800DFE813F061045E045504380442F20F73B5
:10571800249ACAF3130A13605AEA08031AD1269B7B
:10572800002B00F068861A4B03930833269A0398D7
:10573800136019B0BDE8F08FDDE90A12C2F3130354
:10574800084643F07F510F97A6F2FF36169F41F4A3
:10575800401173E7269B002B40F0EF830D4B03931A
:1057680041E700BFAFF3008061436F63A787D23F73
:10577800B3C8608B288AC63FFB799F501344D33F38
:105788000000F07F419700080000F83F6898000883
:105798006897000864970008BE1B731E069300F103
:1057A8008A840E900990069B5B44CDE9063B002352
:1057B8000D93229B092B98D9002322934FF0FF3396
:1057C8000126089300230C9623930021089B61640B
:1057D8001293204601F084FE0390002800F004860E
:1057E800039B2364089B0E2B00F21481002E00F00B
:1057F80011810799002940F36084AF4B01F00F0233
:1058080003EBC2030A46D3E900674FEA2118D10522
:1058180040F11784DDE90A01A84B4FF0030AD3E9E8
:105828000823FBF7A9F8CDE9100108F00F08B8F133
:10583800000F13D0DFF8849218F0010F09D0D9E9CE
:10584800002330463946FAF76DFF06460F460AF13F
:10585800010A5FEA680809F10809EDD1DDE91001DC
:1058680032463B46FBF788F8804689460E9B43B193
:10587800002240464946924BFBF7C6F9002840F003
:1058880035855046FAF71EFE42464B46FAF74AFF60
:105898008C4B0022FAF7CAFCA1F15073CDE9100134
:1058A8001193089B002B00F09780079B1493089B8B
:1058B80013930C9B002B00F0A984139A7E4B0020B5
:1058C80003EBC20353E902237F49FBF755F8DDE9EF
:1058D8001023FAF7A9FCCDE9100149464046FBF729
:1058E800D1F90746FAF7EEFD02460B46404649460F
:1058F800FAF79AFCDDE91023039E303706F8017B9E
:1059080080468946FBF780F9002840F02E85CDF8BF
:1059180054B00027DDE910AB1095139D13942AE0CD
:105928000137AF4280F22E85504659460022674B18
:10593800FAF7F8FE0022654B82468B4640464946F8
:10594800FAF7F0FE89468046FBF79CF90446FAF719
:10595800B9FD02460B4640464946FAF765FC303425
:1059680052465B4606F8014B80468946FBF74CF9E0
:10597800002840F0F88442464B4600205049FAF788
:1059880053FC52465B46FBF73FF90028C8D0DDE9D7
:105998001343109D039A079302E0964200F0CD84CA
:1059A800B24616F8013D392BF7D00133DBB233701C
:1059B800079B01330793C8E15046FAF783FD424637
:1059C8004B46FAF7AFFE3F4B0022FAF72FFCA1F146
:1059D8005073CDE9100111934046494600223C4BD3
:1059E800FAF722FCDDE910894B46424606460F4687
:1059F800FBF728F98146002840F0AF84DDE9100163
:105A0800024601F1004330463946FBF7FDF800280D
:105A180040F04883179B002BC0F28C80079A0E2A0F
:105A280000F38880244B03EBC203D3E900AB239B2C
:105A3800002B1BDA089B002B18DC40F03183002276
:105A4800234B50465946FAF76DFE02460B46DDE9F0
:105A58000A01FBF7E3F8DDF820904E46002800F035
:105A6800CA82239BDDF80C80DF43CCE25246DDE995
:105A78000A785B4638464146FAF77EFFFBF702F99B
:105A880081460990FAF71EFD52465B46FAF74AFE30
:105A9800039E0B46024641463846FAF7C5FB09F114
:105AA800300306F8013B089B012B00F05F83069446
:105AB80001271C4604952AE06898000840980008C9
:105AC8000000F03F00001C400000E03F00002440C0
